:020000040800F2
:1000000038140020450100089D0F00089F0F0008CC
:10001000A30F0008A70F0008AB0F000800000000A6
:10002000000000000000000000000000AF0F00080A
:10003000B10F000800000000B30F0008B50F000862
:100040005F0100085F0100085F0100085F01000810
:100050005F0100085F0100085F0100085F01000800
:100060005F0100085F0100085F0100085F010008F0
:100070005F0100085F0100085F0100085F010008E0
:100080005F0100085F0100085F0100085F010008D0
:100090005F0100085F0100085F0100085F010008C0
:1000A0005F0100085F0100085F0100085F010008B0
:1000B0005F0100085F0100085F0100085F010008A0
:1000C0005F0100085F0100085F0100085F01000890
:1000D0005F0100085F010008351F0008BD0F000820
:1000E0005F0100085F0100085F0100085F01000870
:1000F0005F0100085F0100085F0100085F01000860
:100100005F0100085F0100085F0100085F0100084F
:100110005F0100085F0100085F0100085F0100083F
:100120005F0100085F0100085F0100085F0100082F
:10013000DFF80CD001F080FF00480047650F000891
:10014000381400200648804706480047FEE7FEE7CF
:10015000FEE7FEE7FEE7FEE7FEE7FEE7FEE7FEE777
:1001600047020008310100080CB500200190009002
:100170006C48006840F480306A49086000BF6948F4
:10018000006800F4003000900198401C0190009835
:1001900018B90198B0F5A06FF1D16248006800F479
:1001A000003010B10120009001E000200090009884
:1001B000012843D15C48006840F010005A490860AB
:1001C0000846006820F0030008600846006840F018
:1001D0000200086053484068524948600846406839
:1001E00048600846406840F48060486008464068BF
:1001F00020F47C1048600846406840F4E8104860ED
:100200000846006840F08070086000BF45480068FC
:1002100000F000700028F9D04248406820F0030048
:10022000404948600846406840F00200486000BF0E
:100230003C48406800F00C000828F9D10CBD10B50E
:10024000FFF792FF10BD10B53648006840F001007E
:1002500034490860084640683449084031494860DC
:1002600008460068324908402E4908600846006880
:1002700020F4802008600846406820F4FE004860B2
:100280004FF41F008860FFF7DAFF4FF00060294944
:10029000086010BD10B5002100200022214B5B68D2
:1002A00003F00C0121B1042906D0082928D107E068
:1002B000214B224C236027E01F4B204C236023E07E
:1002C000184B5B6803F47010164B5B6803F48032C4
:1002D000022303EB904022B9194B4343174C236090
:1002E0000DE0104B5B6803F4003323B1144B434320
:1002F000124C236003E0104B4343104C236003E097
:100300000D4B0E4C236000BF00BF064B5B68C3F370
:1003100003130C4CE15C094B1B68CB40074C23607A
:1003200010BD000000100240002002400000FFF855
:10033000FFFFF6FE08ED00E000127A00000000204A
:1003400000093D000400002031490143314A116099
:10035000704770B5002100230F22C47804B32D4CE0
:10036000246804F4E064C4F5E064210AC1F10403E4
:10037000CA40447804FA03F1847814402143090107
:10038000254C0678A155047804F01F050124AC40E3
:1003900005786D11AD0005F1E025C5F8004109E0D3
:1003A000047804F01F050124AC401C4D067876113A
:1003B00045F8264070BD1A4A0A400243154B1B1FE0
:1003C0001A60704739B1134A121D12680243114B6B
:1003D0001B1D1A6006E00F4A121D126882430D4B66
:1003E0001B1D1A607047042808D14FF0E0210969ED
:1003F00041F004014FF0E022116107E04FF0E021ED
:10040000096921F004014FF0E022116170470000FA
:100410000000FA050CED00E000E400E080E100E0FF
:1004200080FFFF1F10B50446CC48844208D101214B
:10043000042000F02DFB0021042000F029FB46E001
:10044000C748844208D10121082000F021FB002187
:10045000082000F01DFB3AE0C248844208D1012187
:10046000102000F015FB0021102000F011FB2EE001
:10047000BD48844208D10121202000F009FB002161
:10048000202000F005FB22E0B848844208D1012179
:10049000402000F0FDFA0021402000F0F9FA16E0BB
:1004A000B348844208D10121802000F0F1FA0021F4
:1004B000802000F0EDFA0AE0AE48844207D1012125
:1004C000801500F0E5FA0021A01500F0E1FA10BD5A
:1004D00010B50121084600F0DBFA0021012000F0F0
:1004E000D7FA10BD2DE9F041024600250026002074
:1004F00000230024002791F803C00CF00F0591F8A9
:1005000003C00CF0100CBCF1000F03D091F802C036
:100510004CEA050591F800C0BCF1000F31D0146819
:1005200000202BE04FF0010C0CFA00F3B1F800C0F2
:100530000CEA03069E4220D183004FF00F0C0CFA08
:1005400003F7BC4305FA03FC4CEA040491F803C02A
:10055000BCF1280F06D14FF0010C0CFA00FCC2F8D8
:1005600014C00AE091F803C0BCF1480F05D14FF068
:10057000010C0CFA00FCC2F810C0401C0828D1D3B2
:100580001460B1F800C0BCF1FF0F34DD54680020E6
:100590002EE000F1080C4FF0010808FA0CF3B1F856
:1005A00000C00CEA03069E4221D183004FF00F0CDD
:1005B0000CFA03F7BC4305FA03FC4CEA040491F877
:1005C00003C0BCF1280F05D100F1080C08FA0CF8A3
:1005D000C2F8148091F803C0BCF1480F07D100F1B4
:1005E000080C4FF0010808FA0CF8C2F81080401C03
:1005F0000828CED35460BDE8F0814FF6FF7101802A
:10060000022181700421C170704702460020936866
:100610000B400BB1012000E00020704701468868C4
:1006200080B2704702460020D3680B400BB1012016
:1006300000E0002070470146C86880B27047016141
:100640007047416170470AB1016100E04161704744
:10065000C16070474FF480320A43826181618261D8
:1006600082698269704702460020434B18684FF642
:100670008073184040EA021008433F4B18607047EF
:100680003E49C8617047F0B50A46002300240021A6
:10069000002500F00046B6F1004F02D1364EF16958
:1006A00001E0354E7168C0F3034583B200F4401693
:1006B000B6F5401F08D121F070612F4E766826F004
:1006C00070662D4F7E6012E000F48016B6F5801F34
:1006D00006D1032606FA05F4A14341F0706106E055
:1006E000460D360103FA06F6B14341F0706122B1BE
:1006F000460D360103FA06F6314300F00046B6F126
:10070000004F02D11C4EF16101E01B4E7160F0BD43
:1007100030B500228B071C0F0F2303FA04F2164B8F
:1007200008338C1053F824309343134C08348D1045
:1007300044F8253023468C1053F824308C07240FBE
:1007400000FA04F423430C4C08348D1044F825308F
:1007500030BD0A49DC3108607047000000080140E4
:10076000000C01400010014000140140001801403D
:10077000001C014000200140000001400000204218
:10078000DF48006840F00100DD4908600846406825
:10079000DC490840DA49486008460068DA49084000
:1007A000D74908600846006820F4802008600846A1
:1007B000406820F4FE0048604FF41F0088607047D6
:1007C000CF49096821F48031CD4A1160114609688A
:1007D00021F480211160B0F5803F03D0B0F5802F67
:1007E0000ED106E0C649096841F48031C44A11605F
:1007F00007E0C349096841F4A021C14A116000E043
:1008000000BF00BF704710B5014600220023002042
:100810004A11012A02D1BA4C236806E0022A02D109
:10082000B74C236A01E0B64C636A01F01F02012451
:1008300094401C400CB1012000E0002010BD38B5F0
:10084000002000900024002500BF3120FFF7DBFFCF
:1008500005460098401C00900098B0F5A06F01D0AC
:10086000002DF2D03120FFF7CEFF08B1012400E0C7
:100870000024204638BD01460020A14A106820F01F
:10088000F80040EAC10010607047A0490860704756
:10089000024600209A4B586820F47C1042EA01037B
:1008A0001843974B5860704798490866704701464F
:1008B0000020934A506820F00300084350607047BE
:1008C0008F48406800F00C007047014600208C4AB9
:1008D000506820F0F0000843506070470146002047
:1008E000874A506820F4E060084350607047014632
:1008F0000020834A506820F4605040EAC1005060F4
:10090000704729B17E4A527A02437D4B5A7204E005
:100910007B4A527A82437A4B5A7270477B49D8316C
:100920000860704701460020754A506820F4404036
:100930000843506070470021714A20321170704A9C
:1009400082F82010012802D004280AD104E00121F5
:100950006B4A2032117005E00521694A203211707E
:1009600000E000BF00BF70476949086070476449F4
:10097000096A0143624A1162704765494439086057
:10098000704730B500210022002400235C4D6D68C3
:1009900005F00C0121B1042905D0082923D105E077
:1009A0005C4D056022E05B4D05601FE0544D6D68B5
:1009B00005F47012524D6D6805F48034022505EB84
:1009C00092421CB9544D554305600BE04C4D6D6887
:1009D00005F400351DB1504D5543056002E04D4D05
:1009E0005543056002E04B4D056000BF00BF444D1C
:1009F0006D6805F0F0010909484D6B5C0568DD4044
:100A000045603F4D6D6805F4E061090A434D6B5C3C
:100A10004568DD4085603A4D6D6805F46051C90A4E
:100A20003E4D6B5C4568DD40C560354D6D6805F435
:100A30004041890B3A4D6B5CC568B5FBF3F5056128
:100A400030BD29B12E4A526902432D4B5A6104E050
:100A50002B4A526982432A4B5A61704729B1284A6E
:100A600092690243264B9A6104E0254A92698243C7
:100A7000234B9A61704729B1214AD2690243204B26
:100A8000DA6104E01E4AD26982431D4BDA61704785
:100A900029B11B4AD2680243194BDA6004E0184AB4
:100AA000D2688243164BDA60704729B1144A126942
:100AB0000243134B1A6104E0114A12698243104B3E
:100AC0001A61704712494039086070470F49C8647D
:100AD00070470B49C87170470948406A40F0807000
:100AE00007494862704701460020054A92680A405B
:100AF0000AB1012000E00020704701498872704768
:100B0000001002400000FFF8FFFFF6FE0000424226
:100B10008004424200127A0000093D0014000020C7
:100B20002400002010B50446FB48844209D101216D
:100B30008803FFF7ADFF00214FF48040FFF7A8FFC7
:100B400032E0F648844209D101214804FFF7ADFFA5
:100B500000214FF40030FFF7A8FF25E0F048844261
:100B600009D101218804FFF7A0FF00214FF4802064
:100B7000FFF79BFF18E0EB48844209D10121C8042C
:100B8000FFF793FF00214FF40020FFF78EFF0BE0EB
:100B9000E548844208D101210805FFF786FF0021BE
:100BA0004FF48010FFF781FF10BD2DE9F04786B0AC
:100BB00005460E460024A24600BFA1460027B08984
:100BC00000B100BF2F462C8A4CF6FF700440F0881D
:100BD00004432C82AC894EF6F3100440B08831896E
:100BE0000843718908430443AC81AC8A4FF6FF4047
:100BF0000440B0890443AC8201A8FFF7C2FEC64896
:100C0000874202D1DDF810A001E0DDF80CA0A88930
:100C100000F4004040B10AEBCA0000EB0A10316852
:100C20004900B0FBF1F807E00AEBCA0000EB0A103C
:100C300031688900B0FBF1F86420B8FBF0F00401E2
:100C40002009642101FB1089A88900F4004040B10B
:100C5000322000EBC900B0FBF1F000F007000443C4
:100C600008E0322000EB09106421B0FBF1F000F045
:100C70000F0004432C8106B0BDE8F0874FF41651F5
:100C8000016000218180C18001810C21418100210E
:100C90008181704710B502460020108A4FF2FF0391
:100CA00018400B884C8823438C882343CC882343EB
:100CB0001843108210BD0021018041808180C180D5
:100CC000704721B1828942F40052828104E0828916
:100CD0004DF6FF731A4082817047F0B50346002439
:100CE00000260025002040F66A17B94200D100BF57
:100CF0001846C1F3421401F01F06012707FA06F552
:100D0000012C01D10C3004E0022C01D1103000E0A4
:100D100014301AB107682F43076002E00768AF4339
:100D20000760F0BD1AB1838A0B43838202E0838A95
:100D30008B4383827047028A4FF6F0731A40028217
:100D4000028A0A430282704782894FF2FF731A4077
:100D5000828182890A438281704721B1828942F06F
:100D60000202828104E082894FF6FD731A4082817B
:100D70007047028A4FF6DF731A400282028A0A43E2
:100D80000282704721B1028A42F48042028204E06A
:100D9000028A4BF6FF731A4002827047C1F30802C1
:100DA0008280704701468888C0F3080070478189B7
:100DB00041F0010181817047028BD2B20283028B24
:100DC00042EA012202837047028B02F47F420283CF
:100DD000028B0A430283704721B1828A42F02002CB
:100DE000828204E0828A4FF6DF731A408282704763
:100DF00021B1828A42F01002828204E0828A4FF698
:100E0000EF731A408282704721B1828A42F0080251
:100E1000828204E0828A4FF6F7731A40828270471A
:100E200021B1828942F40042828103E08289C2F3C7
:100E30000E028281704721B1828A42F4006282826E
:100E400004E0828A4FF2FF731A4082827047828ADE
:100E50004FF6FB731A408282828A0A43828270476D
:100E600021B1828A42F00202828204E0828A4FF635
:100E7000FD731A408282704702460020B1F5007F60
:100E800000D100BF13880B400BB1012000E000200F
:100E9000704701F40072B2F5007F00D100BFCA4371
:100EA0000280704770B50246002400230025002010
:100EB00040F66A16B14200D100BFC1F3421501F0FD
:100EC0001F03012606FA03F3012D02D19689334050
:100ED00006E0022D02D1168A334001E0968A3340A3
:100EE0000C12012606FA04F41688344013B10CB132
:100EF000012000E0002070BD10B50022002340F664
:100F00006A14A14200D100BF0A1201249440A3B286
:100F1000DC43048010BD0000003801400044004064
:100F200000480040004C00400050004008B501213E
:100F30000820FFF793FD1548FFF774FA4FF400708F
:100F4000ADF8000003208DF8020010208DF803009A
:100F500069460E48FFF7C6FA4FF400710B48FFF7D9
:100F60006EFB08BDFFF7E2FF00F066F800F0A0F8A6
:100F700000F008F900F0DCF900F0C9FF04A001F06E
:100F80006DF800F044FE00BFFEE70000000C0140D9
:100F900073696E6B206E6F64650D0A00704700BF49
:100FA000FEE700BFFEE700BFFEE700BFFEE77047B9
:100FB0007047704710B500F02CF910BD10B540F225
:100FC00025511B48FFF76EFFD8B11948FFF7EAFE1D
:100FD000C4B21848B0F80204C0F30E0040F2FF316A
:100FE00088420EDA1349B1F80214C1F30E00411C15
:100FF000104AB2F8022461F30E020E49A1F802244D
:101000000C5440F224410A48FFF74CFF01280DD14F
:101010000848B0F8020420F4004000F500400549FB
:10102000A1F802040248FFF7BDFEC4B210BD0000E3
:10103000004800403000002000B585B00121880341
:10104000FFF70CFD01210420FFF708FD4FF40070AD
:10105000ADF8100018208DF8130003208DF8120051
:1010600004A94648FFF73EFA4FF48060ADF810003F
:1010700004208DF8130004A94048FFF733FA4FF419
:10108000E13000900020ADF80400ADF80600ADF8A6
:101090000800ADF80C000C20ADF80A00694638488D
:1010A000FFF783FD01213648FFF70BFE05B000BDB9
:1010B00000B587B001218803FFF7D0FC3048FFF767
:1010C00031FD4FF4E13003900020ADF81000ADF891
:1010D0001200ADF81400ADF818000C20ADF81600A1
:1010E00003A92748FFF761FD0020ADF80400ADF823
:1010F0000600ADF80800ADF80A0001A92048FFF786
:10110000C9FD012240F225511D48FFF7E6FD0121EE
:101110001B48FFF7D6FD4FF4A060FFF715F9252017
:101120008DF8000001208DF8010003208DF80200E9
:1011300001208DF803006846FFF70BF907B000BDEA
:1011400070B504460D46E1B20D48FFF727FE00BF1B
:1011500080210B48FFF790FE0028F9D0204670BD93
:1011600010B5044600BF20210548FFF785FE002882
:10117000F9D00348FFF716FE10BD0000000801403B
:101180000038014030B527480068274AB0FBF2F12B
:10119000B1F1807F01D301201DE021F07F40401E8E
:1011A0004FF0E022506150170F22002807DA130792
:1011B0001D0E1E4B00F00F04241F1D5503E01307E6
:1011C0001C0E1B4B1C5400BF00204FF0E02290610E
:1011D00007201061002008B100BFFEE74FF0E020BB
:1011E000006920F001004FF0E021086130BD01B539
:1011F0001049009808604FF0E020006940F00100BD
:101200004FF0E021086100BF0A4800680028FBD1C8
:1012100008BD0848006820B106480068401E05491E
:10122000086070470000002040420F0018ED00E009
:1012300000E400E02800002008B54FF4A060FFF7AC
:1012400083F827208DF8000000208DF801008DF82C
:10125000020001208DF803006846FFF77AF808BD08
:1012600000B585B001218804FFF705FC01210820A5
:10127000FFF7F4FB4FF48060ADF8100018208DF8F4
:10128000130003208DF8120004A9FA48FFF72AF989
:101290004FF40060ADF8100004208DF8130004A98D
:1012A000F448FFF71FF94FF4E13000900020ADF84B
:1012B0000400ADF80600ADF80800ADF80C000C20F5
:1012C000ADF80A006946EC48FFF76FFC012240F2D6
:1012D0002551E948FFF701FD012240F22441E6488B
:1012E000FFF7FBFCFFF7A8FF0121E348FFF7E9FC4C
:1012F00005B000BD08B501210820FFF7AFFB802035
:10130000ADF8000010208DF8030003208DF80200D6
:101310006946D848FFF7E6F801210820FFF79EFB51
:101320004020ADF800006946D248FFF7DBF808BD61
:1013300010B5FFF7DFFFFFF793FF4021CD48FFF720
:101340007EF98021CB48FFF77CF910BD10B5402114
:10135000C848FFF776F9C948FFF749FF4021C5485B
:10136000FFF76DF910BD2DE9F04106460C46154614
:101370001F46C348B0F80204C10BC903C048A0F817
:1013800002143246BFA1BC4800F07BFB1CB915B962
:101390000120BDE8F0814FF47A7107FB01F0FFF7FF
:1013A00026FF0021B648B0F80204C0F30E00B44A8C
:1013B00011541146B5A000F051FEB4B1ADB12146B3
:1013C000AF4800F009FE08B1012000E0002040B95C
:1013D0002946AB4800F000FE08B1012000E00020E3
:1013E00008B10120D5E70020D3E744B12146A44845
:1013F00000F0F2FD08B10120CBE70020C9E7294643
:101400009F4800F0E9FD08B10120C2E70020C0E7D5
:1014100010B540219748FFF712F99D48FFF7E7FE06
:1014200001E0FFF793FFC82300229AA19AA0FFF7DB
:101430009AFF0028F5D010BD10B5044624B1012C48
:101440000AD0022C18D10FE040F6C41393A291A148
:1014500095A0FFF788FF10BD40F6C4138FA28DA1A1
:1014600094A0FFF780FFF6E740F6C4138BA289A192
:1014700093A0FFF778FFEEE70020ECE730B59FB0D0
:1014800004460D462B46224690A101A800F0F6FD29
:1014900041F2883300227FA101A8FFF764FF1FB04B
:1014A00030BD70B5A0B004460D4616462B46224608
:1014B0008BA102A8009600F0E1FD4FF47A730022A0
:1014C00074A102A8FFF74FFF20B070BD10B586B021
:1014D00004460CB1012000E00020024686A101A8CC
:1014E00000F0CCFD4FF4FA7300226AA101A8FFF7C7
:1014F0003AFF06B010BDF0B5B9B006460F46144627
:101500001D46642120A800F05CFD16B1012E10D10B
:1015100007E03B467CA27DA120A8009400F0AEFD30
:1015200008E03B467DA279A120A8009400F0A6FD2A
:1015300000E000BF00BF052D06DA20AB2A4678A1E7
:1015400002A800F09BFD04E020AA7AA102A800F006
:1015500095FD4FF47A637BA24EA102A8FFF703FF2B
:1015600039B0F0BD70B5BCB004460D461646FCB1AE
:101570002B46012277A11EA800F080FD32467AA1F9
:10158000684600F07BFD4FF4FA73002241A11EA8CB
:10159000FFF7E9FE50B14FF4FA7300223DA168460F
:1015A000FFF7E1FE10B101203CB070BD0020FBE769
:1015B0002B46002267A11EA800F060FD4FF4FA73CD
:1015C000002234A11EA8FFF7CEFEEDE710B54FF4C0
:1015D000FA7300222FA168A0FFF7C5FEA0B16AA18F
:1015E000274800F0F9FC08B1022010BD69A1244889
:1015F00000F0F2FC08B10320F7E769A1204800F0F1
:10160000EBFC08B10420F0E70020EEE710B5002461
:101610004FF4FA7300221FA157A0FFF7A4FE002881
:1016200026D062A1164800F0D7FC10B144F00104A6
:1016300001E024F0010461A1114800F0CDFC10B1DB
:1016400044F0020401E024F0020460A10C4800F020
:10165000C3FC10B144F0040401E024F004045FA1D1
:10166000074800F0B9FC10B144F00804C0E0BDE048
:10167000C8E00000000C01400048004020A1070025
:101680003000002025730D0A0000000025730000C3
:1016900040420F004F4B0000415400006E6F20632A
:1016A00068616E676500000041542B43574D4F44FD
:1016B000453D310041542B43574D4F44453D320089
:1016C00041542B43574D4F44453D330041542B4328
:1016D000574A41503D222573222C222573220000B7
:1016E00041542B43575341503D222573222C222530
:1016F00073222C312C25640041542B4349504D5505
:10170000583D2564000000005443500022257322F8
:101710002C222573222C2573000000005544500014
:1017200041542B43495053544152543D25642C2578
:101730007300000041542B43495053544152543DCF
:1017400025730000414C5245415920434F4E4E45B0
:101750004354000041542B4349505345525645527F
:101760003D25642C2573000041542B4349505354AC
:101770004F3D25730000000041542B434950535402
:1017800041545553000000005354415455533A32CC
:101790000D0A00005354415455533A330D0A0000CA
:1017A0005354415455533A340D0A00002B434950C9
:1017B0005354415455533A302C0000002B434950A8
:1017C0005354415455533A312C0000002B43495097
:1017D0005354415455533A322C0000002B43495086
:1017E0005354415455533A332C00000024F008045C
:1017F00059A15D4800F0F0FB10B144F0100401E085
:1018000024F01004204610BD2DE9F04105460F4696
:101810004FF4FA730022AFF2841154A0FFF7A3FD36
:1018200055A1514800F0D8FB06460EB1B61D02E0A6
:101830000020BDE8F081002409E0305D2855285DD6
:10184000222802D10020285503E0601CC4B2BC420B
:10185000F3DB00BF0120ECE710B54FF4FA73002270
:10186000AFF2D01146A0FFF77EFD08B9002010BDF1
:101870004FF4FA7346A2AFF2E41146A0FFF773FDEE
:10188000F5E710B54648FFF7B2FC46A1464800F020
:10189000F8F84648FFF7ABFC10BD2DE9F04186B0E3
:1018A00007460C4615461E464FF0000847B1224633
:1018B000AFF228213C4800F0E4F84FF001081BE0AB
:1018C000052E06DAAB1C324639A101A800F0D6FB82
:1018D00004E0AA1C3BA101A800F0D0FB6423002275
:1018E0003CA101A8FFF73FFD4FF4FA7300223AA193
:1018F0002046FFF738FD8046404606B0BDE8F0813F
:1019000070B5044600251848B0F80204C10BC9039D
:101910001548A0F80214B0F8020420F4004112485F
:10192000A0F8021400BF1048B0F80204C00B002851
:10193000F9D000210C48B0F80204C0F30E000A4AA6
:1019400011540CB1154605E025A1074800F044FBF1
:1019500000B1054D284670BD2B43495053544154A6
:1019600055533A342C0000003000002041542B43E2
:101970004946535200000000415049502C220000BB
:1019800041542B4349504D4F44453D310000000028
:101990003E00000041542B43495053454E44000043
:1019A00040420F002B2B2B000048004020A10700D5
:1019B00041542B43495053454E443D25642C2564E6
:1019C0000000000041542B43495053454E443D25EF
:1019D000640000003E20000053454E44204F4B0061
:1019E0002B4950440000000010B5044621466648CB
:1019F000FFF7D4F900BF80216348FFF73DFA0028C4
:101A0000F9D010BD10B5044621466048FFF7C6F96D
:101A100000BF80215D48FFF72FFA0028F9D010BDE4
:101A2000F0B503460D461646002729460A2E03D078
:101A3000002008702846F0BD33B9302001F8010BB2
:101A4000002008702846F6E7002B03DA2D2001F865
:101A5000010B5B4242F210720DE093FBF2F404B909
:101A600037B104F1300001F8010B04FB12330127F8
:101A70000A2092FBF0F2002AEFDC002008702846D2
:101A8000D9E70FB470B586B006460CA8019073E094
:101A90000B9800785C281CD10B98401C0B900078A8
:101AA0006E2809D072280FD10D213046FFF776F944
:101AB0000B98401C0B900BE00A213046FFF76EF9A3
:101AC0000B98401C0B9003E00B98401C0B9000BF40
:101AD0004BE00B980078252840D10B98401C0B90C8
:101AE0000078642818D0732833D1019810C8019069
:101AF0000BE021783046FFF751F900BF80213046D6
:101B0000FFF7BAF90028F9D0641C20780028F0D13A
:101B10000B98401C0B9020E0019820C801900A22ED
:101B200002A92846FFF77CFF02AC0BE02178304683
:101B3000FFF734F900BF80213046FFF79DF90028F8
:101B4000F9D0641C20780028F0D10B98401C0B9031
:101B500003E00B98401C0B9000BF06E00B9810F8B8
:101B6000011B0B903046FFF719F900BF802130466A
:101B7000FFF782F90028F9D00B980078002887D168
:101B800006B070BC5DF814FB004400400048004003
:101B90002DE9F04105466423002272A172A0FFF7EF
:101BA000E2FB74A1744800F017FA8046B8F1000F08
:101BB00009D072A1704800F00FFA00F10B07A8EBF2
:101BC0000700C6B202E00020BDE8F081002403E077
:101BD000385D2855601CC4B2B442F9DB0020A8551A
:101BE0000120F1E710B588B00446224666A1684698
:101BF00000F044FA41F2883300225AA16846FFF708
:101C0000B2FB10B1012008B010BD0020FBE762A5B7
:101C100000BF80216548FEF712FDFFF7F9FB0020A9
:101C2000FFF70AFC00BF62A164A0FFF727FC0028B1
:101C3000F9D000BF0120FFF749FC0028FAD000BF0F
:101C400060A261A10120FFF78DFC0028F8D000BF41
:101C500001235DA25EA10020FFF74DFC0028F7D014
:101C60007FE04548B0F80204C00B00283DD00026B4
:101C7000002240F225515A48FFF72FF800213E4834
:101C8000B0F80204C0F30E003B4A115455A1501C99
:101C900000F0A2F9040012D004F1090153A000F0F1
:101CA000DDF904F1090000F03AF9284600F0A6F940
:101CB000074601233A4629460020FFF7EEFD2E484D
:101CC000B0F80204C10BC9032B48A0F80214B0F805
:101CD000020420F400412848A0F80214012240F236
:101CE00025513F48FEF7F9FF00BF4A48B0F802040B
:101CF000C00B002835D00026002240F2255146486E
:101D0000FEF7EBFF00214348B0F80204C0F30E00D9
:101D1000404A1154114641A000F0A0F947A000F03C
:101D20009DF93C4800F06AF9074601233A463949D3
:101D30000020FFF7B2FD3748B0F80204C10BC90319
:101D40003448A0F80214B0F8020420F400413148ED
:101D5000A0F80214012240F225512F48FEF7BDFFE2
:101D600000BF7EE74F4B000041542B43574C494680
:101D7000000000002C0000003000002041542B43E4
:101D8000574C49460D0D0A0041542B4349504150D0
:101D90003D22257322000000D2D1B7A2CBCDB5BD24
:101DA000D4B6B6CBC9E8B1B8210D0A00000C014089
:101DB00031323334353637380000000069756E69CA
:101DC00020753300313030003830383000000000EA
:101DD0003130362E31352E3139362E313333000045
:101DE000004800402B4950442C0000007063CFC2D3
:101DF000B7A2D6B8C1EE2FCAFDBEDDB5BDBBE3BEEE
:101E0000DBBDDAB5E3A3ACC4DAC8DD3A25730D0A4D
:101E10000000000034080020004400406765742082
:101E200072656D6F7465206C6F72612773206D65CC
:101E300073736167653A25730D0A00007375626DEF
:101E4000697420746F207365727665722E2E2E0D64
:101E50000A00000008B54FF4A060FEF775FA2620CE
:101E60008DF8000002208DF801008DF8020001209D
:101E70008DF803006846FEF76CFA08BD10B586B011
:101E8000044601214804FEF7F6FD01210520FEF776
:101E9000E5FD0420ADF8140018208DF8170003208C
:101EA0008DF8160005A94048FEF71CFB0820ADF888
:101EB000140004208DF8170005A93B48FEF712FB1B
:101EC00001940020ADF80800ADF80A00ADF80C0050
:101ED000ADF810000C20ADF80E0001A93348FEF754
:101EE00064FE012240F225513048FEF7F6FE012241
:101EF00040F224412D48FEF7F0FE01212B48FEF769
:101F0000E0FE40212948FEF7C4FF06B010BD10B521
:101F10004FF41650FFF7B2FFFFF79CFF10BD10B54E
:101F2000044603E02078FFF75FFD641C207800285A
:101F3000F8D110BD70B5002540F225511B48FEF7C1
:101F4000B1FFD8B11948FEF72DFFC4B21848B0F858
:101F50000204C0F30E0040F2FF3188420EDA144949
:101F6000B1F80214C1F30E00411C114AB2F8022468
:101F700061F30E020E49A1F802240C5440F22441F0
:101F80000A48FEF78FFF01280DD10948B0F8020476
:101F900020F4004000F500400549A1F80204034880
:101FA000FEF700FFC4B270BD0008014000440040CD
:101FB00034080020D2B201E000F8012B491EFBD208
:101FC00070470022F6E710B513460A460446194644
:101FD000FFF7F0FF204610BD30B505462A460B46F8
:101FE00012F8010B13F8014B08B1A042F8D01CB154
:101FF000002802D06D1CF1E7284630BD421C10F8C5
:10200000011B0029FBD1801A704730B50B460146F1
:1020100000202022012409E021FA02F59D4205D387
:1020200003FA02F5491B04FA02F52844151EA2F131
:102030000102F1DC30BD0000064C074D06E0E0680F
:1020400040F0010394E8070098471034AC42F6D3FF
:10205000FEF772F888220008A82200080FB4054B8A
:1020600010B503A9044A029800F02CF810BC5DF8E2
:1020700014FB0000411100082C0000200FB4084B95
:1020800010B504A902AA039800F01CF8044602A99E
:10209000002000F0F3F8204610BC5DF814FB0000AF
:1020A0007D22000802E008C8121F08C1002AFAD1E8
:1020B00070477047002001E001C1121F002AFBD1C8
:1020C000704700002DE9FF4F8BB09A460F4605463A
:1020D000002606E025280BD052460D9990476D1C2E
:1020E000761C28780028F5D10FB03046BDE8F08F77
:1020F0000024A0460122604900E0044315F8013F96
:10210000203B02FA03F00842F7D128782E2817D195
:1021100015F8010F44F004042A280ED06FF02F02A6
:102120002878A0F1300109290AD808EB880102EBD0
:10213000410100EB01086D1CF2E757F8048B6D1CA0
:10214000287869283ED006DC0028CDD063280BD043
:10215000642804D136E0732810D075284BD052463D
:102160000D999047761C85E017F8040B8DF8000058
:1021700000208DF80100E946012003E057F8049B98
:102180004FF0FF3061074FF0000401D40AE0641CF7
:1021900044450DDA8442FADB19F804100029F6D11F
:1021A00006E0641C8442FCDB19F804100029F8D115
:1021B000264404E019F8010B52460D999047641E1D
:1021C000F8D257E001CF4FF00A0B002802DA404264
:1021D0002D2102E0210504D52B218DF824100121A9
:1021E00003E0E10705D02021F7E70DF12009089170
:1021F0000CE00021F9E701CF4FF00A0BF9E759464F
:10220000FFF703FF01F1300209F8012D0028F6D194
:10221000ADEB090000F1200B600701D44FF001087D
:10222000D84502DDA8EB0B0000E00020804600242A
:1022300006E009A85246005D0D999047641C761C83
:1022400008988442F5DB04E0302052460D9990470F
:10225000761CB8F10001A8F10108F5DC05E019F8D9
:10226000010B52460D999047761CBBF10001ABF172
:10227000010BF4DC6D1C34E7092801000A68531CCB
:102280000B60107070470000A822000800000020BA
:1022900030000000A4200008D822000830000020F0
:1022A00008140000B420000800A24A040000000046
:1022B00000000000010203040607080900000000F6
:1022C00001020304010203040607080902040608C8
:0822D000000000000000000006
:0400000508000131BD
:00000001FF
