:020000040800F2
:100000003808002045010008790F00087B0F000820
:100010007F0F0008830F0008870F00080000000012
:100020000000000000000000000000008B0F00082E
:100030008D0F0008000000008F0F0008910F0008CE
:100040005F0100085F0100085F0100085F01000810
:100050005F0100085F0100085F0100085F01000800
:100060005F0100085F0100085F0100085F010008F0
:100070005F0100085F0100085F0100085F010008E0
:100080005F0100085F0100085F0100085F010008D0
:100090005F0100085F0100085F0100085F010008C0
:1000A0005F0100085F0100085F0100085F010008B0
:1000B0005F0100085F0100085F0100085F010008A0
:1000C0005F0100085F0100085F0100085F01000890
:1000D0005F0100085F0100085F010008990F000838
:1000E0005F0100085F0100085F0100085F01000870
:1000F0005F0100085F0100085F0100085F01000860
:100100005F0100085F0100085F0100085F0100084F
:100110005F0100085F0100085F0100085F0100083F
:100120005F0100085F0100085F0100085F0100082F
:10013000DFF80CD001F0F0FD004800475D0F00082B
:10014000380800200648804706480047FEE7FEE7DB
:10015000FEE7FEE7FEE7FEE7FEE7FEE7FEE7FEE777
:1001600045020008310100080CB500200190009004
:100170006B48006840F480306949086000BF6848F7
:10018000006800F4003000900198401C0190009835
:1001900018B90198B0F5A06FF1D16148006810F46A
:1001A000003F02D00120009001E000200090009864
:1001B000012842D15B48006840F0100059490860AE
:1001C0000846006820F0030008600846006840F018
:1001D000020008605248406851494860084640683B
:1001E00048600846406840F48060486008464068BF
:1001F00020F47C1048600846406840F4E8104860ED
:100200000846006840F08070086000BF44480068FD
:1002100010F0007FFAD04248406820F003004049C7
:1002200048600846406840F00200486000BF3C4813
:10023000406800F00C000828F9D10CBD10B5FFF79C
:1002400093FF10BD10B53648006840F001003449F6
:10025000086008464068344908403149486008460B
:100260000068324908402E4908600846006820F4BA
:10027000802008600846406820F4FE0048604FF483
:100280001F008860FFF7DAFF4FF000602849086020
:1002900010BD10B5002100200022214B5B6803F047
:1002A0000C0121B1042906D0082928D107E0214BEF
:1002B000214C236027E01F4B1F4C236023E0184B89
:1002C0005B6803F47010164B5B6803F48032022302
:1002D00003EB904022B9194B4343174C23600DE0C8
:1002E0000F4B5B6813F4003F04D0144B4343124C94
:1002F000236003E00F4B43430F4C236003E00D4B9F
:100300000D4C236000BF00BF054B5B68C3F30313B4
:100310000B4CE15C084B1B68CB40074C236010BDC5
:1003200000100240002002400000FFF8FFFFF6FE30
:1003300008ED00E000127A000000002000093D00F6
:100340000400002031490143314A1160704770B503
:10035000002100230F22C4780CB32D4C246804F430
:10036000E064C4F5E064210AC1F10403CA404478A2
:1003700004FA03F18478144021430901254C0678DE
:10038000A155047804F01F050124AC4005786D11D7
:100390004FF0E02606EB8505C5F8004109E004783A
:1003A00004F01F050124AC401B4D0678761145F87A
:1003B000264070BD194A0A400243154B1B1F1A60A4
:1003C000704739B1124A121D12680243104B1B1DAF
:1003D0001A6006E00E4A121D126882430C4B1B1D68
:1003E0001A607047042808D14FF0E021096941F0F4
:1003F00004014FF0E022116107E04FF0E0210969AC
:1004000021F004014FF0E022116170470000FA056D
:100410000CED00E000E400E080E100E080FFFF1F61
:1004200010B50446CA48844208D10121042000F0D6
:1004300027FB0021042000F023FB46E0C54884424E
:1004400008D10121082000F01BFB0021082000F04A
:1004500017FB3AE0C048844208D10121102000F087
:100460000FFB0021102000F00BFB2EE0BB48844264
:1004700008D10121202000F003FB0021202000F002
:10048000FFFA22E0B648844208D10121402000F062
:10049000F7FA0021402000F0F3FA16E0B148844258
:1004A00008D10121802000F0EBFA0021802000F02B
:1004B000E7FA0AE0AC48844207D10121801500F038
:1004C000DFFA0021A01500F0DBFA10BD10B5012104
:1004D000084600F0D5FA0021012000F0D1FA10BD45
:1004E0002DE9F041024600250026002000230024CB
:1004F000002791F803C00CF00F0591F803C01CF021
:10050000100F03D091F802C04CEA050591F800C025
:10051000BCF1000F31D0146800202BE04FF0010C2B
:100520000CFA00F3B1F800C00CEA03069E4220D199
:1005300083004FF00F0C0CFA03F7BC4305FA03FCE1
:100540004CEA040491F803C0BCF1280F06D14FF027
:10055000010C0CFA00FCC2F814C00AE091F803C0C8
:10056000BCF1480F05D14FF0010C0CFA00FCC2F8A9
:1005700010C0401C0828D1D31460B1F800C0BCF1F1
:10058000FF0F34DD546800202EE000F1080C4FF01E
:10059000010808FA0CF3B1F800C00CEA03069E4209
:1005A00021D183004FF00F0C0CFA03F7BC4305FA7E
:1005B00003FC4CEA040491F803C0BCF1280F05D1F8
:1005C00000F1080C08FA0CF8C2F8148091F803C086
:1005D000BCF1480F07D100F1080C4FF0010808FAF0
:1005E0000CF8C2F81080401C0828CED35460BDE837
:1005F000F0814FF6FF710180022181700421C170EA
:1006000070470246002093680B4201D0012000E0B1
:10061000002070470146886880B27047024600207B
:10062000D3680B4201D0012000E000207047014652
:10063000C86880B2704701617047416170470AB174
:10064000016100E041617047C16070474FF4803242
:100650000A438261816182618269826970470246D0
:100660000020424B18684FF68073184040EA021091
:1006700008433E4B186070473D49C8617047F0B56C
:100680000A46002300240021002500F00046B6F1B0
:10069000004F02D1354EF16901E0344E7168C0F36C
:1006A000034583B200F44016B6F5401F08D121F08F
:1006B00070612E4E766826F070662C4F7E6012E0D8
:1006C00000F48016B6F5801F06D1032606FA05F45D
:1006D000A14341F0706106E0460D360103FA06F6CB
:1006E000B14341F0706122B1460D360103FA06F6BE
:1006F000314300F00046B6F1004F02D11B4EF161CC
:1007000001E01A4E7160F0BD30B500228B071C0F5E
:100710000F2303FA04F2154B08338C1053F82430DE
:100720009343124C08348D1044F8253023468C1026
:1007300053F824308C07240F00FA04F423430B4CA5
:1007400008348D1044F8253030BD0A4908607047E0
:1007500000080140000C014000100140001401405D
:1007600000180140001C0140002001400000014031
:1007700000002042DC002042DD48006840F001001B
:10078000DB49086008464068DA490840D8494860B3
:1007900008460068D8490840D549086008460068FE
:1007A00020F4802008600846406820F4FE0048607D
:1007B0004FF41F0088607047CD49096821F48031EB
:1007C000CB4A11601146096821F480211160B0F50F
:1007D000803F03D0B0F5802F0ED106E0C4490968F0
:1007E00041F48031C24A116007E0C149096841F40F
:1007F000A021BF4A116000E000BF00BF704710B5E4
:1008000001460022002300204A11012A02D1B84CDF
:10081000236806E0022A02D1B54C236A01E0B44CF9
:10082000636A01F01F02012494401C4201D00120A0
:1008300000E0002010BD38B5002000900024002505
:1008400000BF3120FFF7DBFF05460098401C0090F9
:100850000098B0F5A06F01D0002DF2D03120FFF745
:10086000CEFF08B1012400E00024204638BD014637
:1008700000209F4A106820F0F80040EAC100106094
:1008800070479E490860704702460020984B5868A0
:1008900020F47C1042EA01031843954B58607047DE
:1008A00096490866704701460020914A506820F03A
:1008B00003000843506070478D48406800F00C000A
:1008C0007047014600208A4A506820F0F000084333
:1008D0005060704701460020854A506820F4E0606F
:1008E00008435060704701460020814A506820F458
:1008F000605040EAC1005060704729B17C4A527A8A
:1009000002437B4B5A7204E0794A527A8243784B15
:100910005A7270477A490860704701460020744A4D
:10092000506820F440400843506070470021754AE9
:1009300011706F4A82F82010012802D0042808D1D3
:1009400003E001216F4A117004E005216D4A117026
:1009500000E000BF00BF70476B4908607047644902
:10096000096A0143624A1162704767494439086065
:10097000704730B500210022002400235C4D6D68D3
:1009800005F00C0121B1042905D0082923D105E087
:100990005E4D056022E05D4D05601FE0544D6D68C1
:1009A00005F47012524D6D6805F48034022505EB94
:1009B00092421CB9564D554305600BE04C4D6D6895
:1009C00015F4003F03D0524D5543056002E04F4DF2
:1009D0005543056002E04D4D056000BF00BF444D2A
:1009E0006D6805F0F00109094A4D6B5C0568DD4052
:1009F00045603F4D6D6805F4E061090A454D6B5C4B
:100A00004568DD4085603A4D6D6805F46051C90A5E
:100A1000404D6B5C4568DD40C560354D6D6805F443
:100A20004041890B3C4D6B5CC568B5FBF3F5056136
:100A300030BD29B12E4A526902432D4B5A6104E060
:100A40002B4A526982432A4B5A61704729B1284A7E
:100A500092690243264B9A6104E0254A92698243D7
:100A6000234B9A61704729B1214AD2690243204B36
:100A7000DA6104E01E4AD26982431D4BDA61704795
:100A800029B11B4AD2680243194BDA6004E0184AC4
:100A9000D2688243164BDA60704729B1144A126952
:100AA0000243134B1A6104E0114A12698243104B4E
:100AB0001A61704714494039086070470F49C8648B
:100AC00070470B49C87170470948406A40F0807010
:100AD00007494862704701460020054A92680A4269
:100AE00001D0012000E00020704701498872704762
:100AF000001002400000FFF8FFFFF6FE0000424237
:100B0000D8004242201002408004424200127A0083
:100B100000093D00140000202400002010B5044608
:100B2000FB48844209D101218803FFF7A9FF002176
:100B30004FF48040FFF7A4FF32E0F648844209D129
:100B400001214804FFF7A9FF00214FF40030FFF70F
:100B5000A4FF25E0F048844209D101218804FFF771
:100B60009CFF00214FF48020FFF797FF18E0EB482F
:100B7000844209D10121C804FFF78FFF00214FF4FF
:100B80000020FFF78AFF0BE0E548844208D10121ED
:100B90000805FFF782FF00214FF48010FFF77DFF6B
:100BA00010BD2DE9F04786B005460E460024A2464A
:100BB00000BFA1460027B08900B100BF2F462C8A94
:100BC0004CF6FF700440F08804432C82AC894EF64A
:100BD000F3100440B0883189084371890843044305
:100BE000AC81AC8A4FF6FF400440B0890443AC822C
:100BF00001A8FFF7BEFEC648874202D1DDF810A06B
:100C000001E0DDF80CA0A88910F4004F08D00AEB31
:100C1000CA0000EB0A1031684900B0FBF1F807E0A8
:100C20000AEBCA0000EB0A1031688900B0FBF1F84A
:100C30006420B8FBF0F004012009642101FB108955
:100C4000A88910F4004F08D0322000EBC900B0FB97
:100C5000F1F000F00700044308E0322000EB091037
:100C60006421B0FBF1F000F00F0004432C8106B0CA
:100C7000BDE8F0874FF41651016000218180C180EA
:100C800001810C21418100218181704710B502460C
:100C90000020108A4FF2FF0318400B884C88234332
:100CA0008C882343CC8823431843108210BD002135
:100CB000018041808180C180704721B1828942F4E6
:100CC0000052828104E082894DF6FF731A408281CE
:100CD0007047F0B503460024002600250020A1F54A
:100CE00010676A3F00D100BF1846C1F3421401F0FB
:100CF0001F06012707FA06F5012C01D10C3004E08C
:100D0000022C01D1103000E014301AB107682F43D3
:100D1000076002E00768AF430760F0BD1AB1838A3D
:100D20000B43838202E0838A8B4383827047028A6B
:100D30004FF6F0731A400282028A0A430282704719
:100D400082894FF2FF731A40828182890A4382812D
:100D5000704721B1828942F00202828104E08289D7
:100D60004FF6FD731A4082817047028A4FF6DF7397
:100D70001A400282028A0A430282704721B1028A23
:100D800042F48042028204E0028A4BF6FF731A406A
:100D900002827047C1F3080282807047014688884A
:100DA000C0F308007047818941F0010181817047DB
:100DB000028BD2B20283028B42EA01220283704785
:100DC000028B02F47F420283028B0A430283704744
:100DD00021B1828A42F02002828204E0828A4FF6A8
:100DE000DF731A408282704721B1828A42F010027A
:100DF000828204E0828A4FF6EF731A408282704743
:100E000021B1828A42F00802828204E0828A4FF68F
:100E1000F7731A408282704721B1828942F40042FE
:100E2000828103E08289C2F30E028281704721B180
:100E3000828A42F40062828204E0828A4FF2FF7367
:100E40001A4082827047828A4FF6FB731A40828270
:100E5000828A0A438282704721B1828A42F002026A
:100E6000828204E0828A4FF6FD731A4082827047C4
:100E700002460020B1F5007F00D100BF13880B426D
:100E800001D0012000E00020704701F40072B2F5AB
:100E9000007F00D100BFCA430280704770B5024690
:100EA0000024002300250020A1F510666A3E00D131
:100EB00000BFC1F3421501F01F03012606FA03F338
:100EC000012D02D19689334006E0022D02D1168A07
:100ED000334001E0968A33400C12012606FA04F4EE
:100EE0001688344013B10CB1012000E0002070BD21
:100EF00010B500220023A1F510646A3C00D100BFA8
:100F00000A1201249440A3B2DC43048010BD000007
:100F1000003801400044004000480040004C0040C0
:100F20000050004008B501210820FFF78FFD11484F
:100F3000FFF776FA4FF40070ADF8000003208DF84B
:100F4000020010208DF8030069460A48FFF7C8FA2E
:100F50004FF400710748FFF76EFB08BDFFF7E2FF93
:100F600000F058F800F0B4F800F088F900F0D5FD72
:100F700000BFFEE7000C0140704700BFFEE700BF66
:100F8000FEE700BFFEE700BFFEE77047704770470F
:100F900010B500F0E4F810BD10B540F225511B4823
:100FA000FFF77CFFD8B11948FFF7F8FEC4B2184824
:100FB000B0F80004C0F30E0040F2FF3188420EDAB0
:100FC0001349B1F80014C1F30E00411C104AB2F8E5
:100FD000002461F30E020E49A1F800240C5440F2E3
:100FE00024410A48FFF75AFF01280DD10848B0F8FC
:100FF000000420F4004000F500400549A1F8000479
:101000000248FFF7CBFEC4B210BD0000004800400C
:101010003000002000B585B001218803FFF716FDE0
:1010200001210420FFF712FD4FF40070ADF810000D
:1010300018208DF8130003208DF8120004A922480F
:10104000FFF74EFA4FF48060ADF8100004208DF8E1
:10105000130004A91C48FFF743FA4FF4E130009055
:101060000020ADF80400ADF80600ADF80800ADF8BA
:101070000C000C20ADF80A0069461448FFF791FDFA
:1010800001211248FFF719FE05B000BD70B50446F6
:101090000D46E1B20D48FFF77DFE00BF80210B48F1
:1010A000FFF7E6FE0028F9D0204670BD10B50446D3
:1010B00000BF20210548FFF7DBFE0028F9D00348D8
:1010C000FFF76CFE10BD0000000801400038014031
:1010D00030B527480068274AB0FBF2F1B1F1807FB4
:1010E00001D301201DE021F07F40401E4FF0E0229F
:1010F000506150170F22002807DA13071D0E1E4BF0
:1011000000F00F04241F1D5503E013071C0E1B4B9A
:101110001C5400BF00204FF0E022906107201061B6
:10112000002008B100BFFEE74FF0E020006920F08A
:1011300001004FF0E021086130BD01B51049009871
:1011400008604FF0E020006940F001004FF0E0211E
:10115000086100BF0A4800680028FBD108BD0848A4
:10116000006820B106480068401E054908607047C5
:101170000000002040420F0018ED00E000E400E015
:101180002800002008B54FF4A060FFF7DBF8272007
:101190008DF8000000208DF801008DF8020001207C
:1011A0008DF803006846FFF7D2F808BD00B585B09A
:1011B00001218804FFF757FC01210820FFF746FCB6
:1011C0004FF48060ADF8100018208DF81300032054
:1011D0008DF8120004A9FA48FFF782F94FF4006075
:1011E000ADF8100004208DF8130004A9F448FFF7AF
:1011F00077F94FF4E13000900020ADF80400ADF82D
:101200000600ADF80800ADF80C000C20ADF80A009F
:101210006946EC48FFF7C5FC012240F22551E94838
:10122000FFF757FD012240F22441E648FFF751FD48
:10123000FFF7A8FF0121E348FFF73FFD05B000BD20
:1012400008B501210820FFF701FC8020ADF800005F
:1012500010208DF8030003208DF802006946D8485D
:10126000FFF73EF901210820FFF7F0FB4020ADF821
:1012700000006946D248FFF733F908BD10B5FFF703
:10128000DFFFFFF793FF4021CD48FFF7D4F980211E
:10129000CB48FFF7D2F910BD10B54021C848FFF781
:1012A000CCF9C948FFF749FF4021C548FFF7C3F90A
:1012B00010BD2DE9F04106460C4615461F46C348B1
:1012C000B0F80004C10BC903C048A0F800143246AE
:1012D000BFA1BC4800F05FFB1CB915B90120BDE8F7
:1012E000F0814FF47A7107FB01F0FFF726FF002130
:1012F000B648B0F80004C0F30E00B44A11541146C9
:10130000B5A000F01BFDB4B1ADB12146AF4800F06F
:10131000D3FC08B1012000E0002040B92946AB48C9
:1013200000F0CAFC08B1012000E0002008B1012053
:10133000D5E70020D3E744B12146A44800F0BCFC27
:1013400008B10120CBE70020C9E729469F4800F0FB
:10135000B3FC08B10120C2E70020C0E710B540216E
:101360009748FFF768F99D48FFF7E7FE01E0FFF7B0
:1013700093FFC82300229AA19AA0FFF79AFF0028A2
:10138000F5D010BD10B5044624B1012C0AD0022CB2
:1013900018D10FE040F6C41393A291A195A0FFF7D6
:1013A00088FF10BD40F6C4138FA28DA194A0FFF753
:1013B00080FFF6E740F6C4138BA289A193A0FFF744
:1013C00078FFEEE70020ECE730B59FB004460D460D
:1013D0002B46224690A101A800F0C0FC41F28833C0
:1013E00000227FA101A8FFF764FF1FB030BD70B5D8
:1013F000A0B004460D4616462B4622468BA102A8F5
:10140000009600F0ABFC4FF47A73002274A102A89E
:10141000FFF74FFF20B070BD10B586B004460CB189
:10142000012000E00020024686A101A800F096FC01
:101430004FF4FA7300226AA101A8FFF73AFF06B041
:1014400010BDF0B5B9B006460F4614461D466421DE
:1014500020A800F026FC16B1012E10D107E03B4673
:101460007CA27DA120A8009400F078FC08E03B4617
:101470007DA279A120A8009400F070FC00E000BFDC
:1014800000BF052D06DA20AB2A4678A102A800F09D
:1014900065FC04E020AA7AA102A800F05FFC4FF4EA
:1014A0007A637BA24EA102A8FFF703FF39B0F0BD1B
:1014B00070B5BCB004460D461646FCB12B46012261
:1014C00077A11EA800F04AFC32467AA1684600F0D7
:1014D00045FC4FF4FA73002241A11EA8FFF7E9FE74
:1014E00050B14FF4FA7300223DA16846FFF7E1FEC8
:1014F00010B101203CB070BD0020FBE72B4600225C
:1015000067A11EA800F02AFC4FF4FA73002234A150
:101510001EA8FFF7CEFEEDE710B54FF4FA730022D8
:101520002FA168A0FFF7C5FEA0B16AA1274800F06F
:10153000C3FB08B1022010BD69A1244800F0BCFB28
:1015400008B10320F7E769A1204800F0B5FB08B116
:101550000420F0E70020EEE710B500244FF4FA7302
:1015600000221FA157A0FFF7A4FE002826D062A1E9
:10157000164800F0A1FB10B144F0010401E024F092
:10158000010461A1114800F097FB10B144F002047E
:1015900001E024F0020460A10C4800F08DFB10B1C2
:1015A00044F0040401E024F004045FA1074800F0C3
:1015B00083FB10B144F00804C0E0BDE0C8E00000C7
:1015C000000C01400048004020A10700300000202E
:1015D00025730D0A000000002573000040420F0033
:1015E0004F4B0000415400006E6F206368616E67CE
:1015F0006500000041542B43574D4F44453D310099
:1016000041542B43574D4F44453D320041542B43E9
:10161000574D4F44453D330041542B43574A4150A9
:101620003D222573222C22257322000041542B4396
:10163000575341503D222573222C222573222C31F1
:101640002C25640041542B4349504D55583D256489
:101650000000000054435000222573222C222573E1
:10166000222C2573000000005544500041542B43A8
:10167000495053544152543D25642C2573000000B9
:1016800041542B43495053544152543D257300005B
:10169000414C5245415920434F4E4E454354000062
:1016A00041542B4349505345525645523D25642CD5
:1016B0002573000041542B43495053544F3D25732B
:1016C0000000000041542B4349505354415455539A
:1016D000000000005354415455533A320D0A0000A3
:1016E0005354415455533A330D0A00005354415456
:1016F00055533A340D0A00002B434950535441547A
:1017000055533A302C0000002B4349505354415458
:1017100055533A312C0000002B4349505354415447
:1017200055533A322C0000002B4349505354415436
:1017300055533A332C00000024F0080459A15D48A9
:1017400000F0BAFA10B144F0100401E024F01004E3
:10175000204610BD2DE9F04105460F464FF4FA73BF
:101760000022AFF2841154A0FFF7A3FD55A1514808
:1017700000F0A2FA06460EB1B61D02E00020BDE858
:10178000F081002409E0305D2855285D222802D12F
:101790000020285503E0601CC4B2BC42F3DB00BF4C
:1017A0000120ECE710B54FF4FA730022AFF2D0112C
:1017B00046A0FFF77EFD08B9002010BD4FF4FA7374
:1017C00046A2AFF2E41146A0FFF773FDF5E710B5AE
:1017D0004648FFF7B2FC46A1464800F0DCF8464810
:1017E000FFF7ABFC10BD2DE9F04186B007460C4673
:1017F00015461E464FF0000847B12246AFF2282199
:101800003C4800F0C8F84FF001081BE0052E06DA4E
:10181000AB1C324639A101A800F0A0FA04E0AA1CD2
:101820003BA101A800F09AFA642300223CA101A880
:10183000FFF73FFD4FF4FA7300223AA12046FFF76D
:1018400038FD8046404606B0BDE8F08170B50446DC
:1018500000251848B0F80004C10BC9031548A0F8CA
:101860000014B0F8000420F400411248A0F800145D
:1018700000BF1048B0F80004C00BFAD000210D489A
:10188000B0F80004C0F30E000A4A11540CB115461A
:1018900005E026A1074800F00FFA00B1054D2846E3
:1018A00070BD00002B4349505354415455533A34B2
:1018B0002C0000003000002041542B434946535275
:1018C00000000000415049502C22000041542B439D
:1018D00049504D4F44453D31000000003E0000009E
:1018E00041542B43495053454E44000040420F00A1
:1018F0002B2B2B000048004020A1070041542B4314
:10190000495053454E443D25642C25640000000099
:1019100041542B43495053454E443D25640000003B
:101920003E20000053454E44204F4B002B4950446D
:1019300000000000F0B503460D4616460027294674
:101940000A2E03D0002008702846F0BD33B930209D
:1019500001F8010B002008702846F6E7002B03DA97
:101960002D2001F8010B5B4242F210720DE093FB57
:10197000F2F404B937B104F1300001F8010B04FBB3
:10198000123301270A2092FBF0F2002AEFDC00203C
:1019900008702846D9E70FB470B586B006460CA883
:1019A000019073E00B9800785C281CD10B98401CC8
:1019B0000B9000786E2809D072280FD10D21304687
:1019C000FFF7E8F90B98401C0B900BE00A2130461A
:1019D000FFF7E0F90B98401C0B9003E00B98401CBC
:1019E0000B9000BF4BE00B980078252840D10B9856
:1019F000401C0B900078642818D0732833D10198CC
:101A000010C801900BE021783046FFF7C3F900BF02
:101A100080213046FFF72CFA0028F9D0641C20788A
:101A20000028F0D10B98401C0B9020E0019820C8B2
:101A300001900A2202A92846FFF77CFF02AC0BE0C6
:101A400021783046FFF7A6F900BF80213046FFF726
:101A50000FFA0028F9D0641C20780028F0D10B98E8
:101A6000401C0B9003E00B98401C0B9000BF06E05D
:101A70000B9810F8011B0B903046FFF78BF900BF55
:101A800080213046FFF7F4F90028F9D00B98007850
:101A9000002887D106B070BC5DF814FB2DE9F04139
:101AA0000546642300225BA15BA0FFF702FC5DA159
:101AB0005D4800F001F98046B8F1000F09D05BA144
:101AC000594800F0F9F800F10B07A8EB0700C6B27F
:101AD00002E00020BDE8F081002403E0385D2855D5
:101AE000601CC4B2B442F9DB0020A8550120F1E724
:101AF00010B588B0044622464FA1684600F02EF982
:101B000041F28833002243A16846FFF7D2FB10B1AF
:101B1000012008B010BD0020FBE79AB0642101A8A5
:101B200000F0BFF880214848FEF785FDFFF716FC5E
:101B30000020FFF727FC00BF44A147A0FFF744FCAB
:101B40000028F9D000BF052345A247A10020FFF7D8
:101B500078FC0028F7D000BF0523062246A100200C
:101B6000FFF741FE0028F7D053E02F48B0F80004FB
:101B7000C00B4ED0002240F225514148FFF7A9F892
:101B800000212948B0F80004C0F30E00264A115481
:101B90003CA1104600F090F8060012D0B579472D10
:101BA00007D04B2D0BD14FF400712748FEF745FDB0
:101BB00006E04FF400712448FEF73DFD00E000BF51
:101BC00000BF32A1184800F077F806000CD07079F9
:101BD0003038C4B201A800F081F8074623463A46DF
:101BE00001A90020FFF7FFFD0F48B0F80004C10B6A
:101BF000C9030D48A0F80014B0F8000420F4004117
:101C00000948A0F80014012240F225511C48FFF7B2
:101C100060F8AAE74F4B000041542B43574C49460C
:101C2000000000002C0000003000002041542B4335
:101C3000574C49460D0D0A0041542B434950415021
:101C40003D22257322000000000C0140353538315B
:101C50003535383100000000466959750000000034
:101C600035303030000000003139322E3136382E18
:101C70003139312E3100000068656C6C6F21000035
:101C8000004800404553504C454400002B49504407
:101C90002C000000D2B201E000F8012B491EFBD25B
:101CA00070470022F6E710B513460A460446194667
:101CB000FFF7F0FF204610BD30B505462A460B461B
:101CC00012F8010B13F8014B08B1A042F8D01CB177
:101CD000002802D06D1CF1E7284630BD421C10F8E8
:101CE000011B0029FBD1801A704730B50B46014615
:101CF00000202022012409E021FA02F59D4205D3AB
:101D000003FA02F5491B04FA02F52844151EA2F154
:101D10000102F1DC30BD0000064C074D06E0E06832
:101D200040F0010394E8070098471034AC42F6D322
:101D3000FEF702FA681F0008881F00080FB4054B61
:101D400010B503A9044A029800F02CF810BC5DF805
:101D500014FB00008D1000082C0000200FB4084B6D
:101D600010B504A902AA039800F01CF8044602A9C1
:101D7000002000F0F3F8204610BC5DF814FB0000D2
:101D80005D1F000802E008C8121F08C1002AFAD12E
:101D900070477047002001E001C1121F002AFBD1EB
:101DA000704700002DE9FF4F8BB09A460F4605465D
:101DB0000026C9E0252837D100246D1C6649A046BD
:101DC00001222B78203B02FA03F0084202D00443A0
:101DD0006D1CF6E728782E2817D115F8010F44F06E
:101DE00004042A280ED06FF02F022878A0F13001C9
:101DF00009290AD808EB880102EB410100EB010830
:101E00006D1CF2E757F8048B6D1C287869283FD0C9
:101E100006DC002871D063280CD0642804D137E098
:101E2000732811D075284ED052460D99904706F16F
:101E3000010688E017F8040B8DF8000000208DF8EB
:101E40000100E946012003E057F8049B4FF0FF3002
:101E500061074FF0000401D40AE0641C44450DDA28
:101E60008442FADB19F804100029F6D106E0641C5C
:101E70008442FCDB19F804100029F8D1264404E060
:101E800019F8010B52460D999047641EF8D25AE09A
:101E900001CF4FF00A0B002804DAC0F100004FF028
:101EA0002D0102E0210504D52B218DF824100121FC
:101EB00003E0E10705D02021F7E70DF120090891A3
:101EC0000CE00021F9E701CF4FF00A0BF9E7594682
:101ED000FFF70BFF01F1300209F8012D0028F6D1C0
:101EE000ADEB090000F1200B600701D44FF00108B1
:101EF000D84503DDA8EB0B0001E029E00020804677
:101F0000002406E009A85246005D0D999047761C12
:101F1000641C08988442F5DB04E0302052460D9999
:101F20009047761CB8F10001A8F10108F5DC05E046
:101F300019F8010B52460D999047761CBBF1000130
:101F4000ABF1010BF4DC6D1C287800287FF432AF74
:101F50000FB03046BDE8F08F092801000A68531C15
:101F60000B60107070470000881F00080000002000
:101F700030000000841D0008B81F00083000002059
:101F800008080000941D000800A24A040000000098
:101F90000000000001020304060708090000000019
:101FA00001020304010203040607080902040608EB
:081FB000000000000000000029
:0400000508000131BD
:00000001FF
