:020000040800F2
:100000000815002045010008610C0008890B000854
:100010005D0C0008310900085B19000800000000B1
:10002000000000000000000000000000ED100008CB
:100030003509000800000000550D000801120008F5
:100040005F0100085F0100085F010008C90F000898
:100050005F0100085F0100085F0100085F01000800
:100060005F0100085F0100085F0100085F010008F0
:100070005F0100085F0100085F0100085F010008E0
:100080005F0100085F0100085F0100085F010008D0
:100090005F0100085F0100085F0100085F010008C0
:1000A0005F0100085F0100085F0100085F010008B0
:1000B000AD1200085F0100085F0100085F01000841
:1000C0005F0100085F0100085F0100085F01000890
:1000D0005F0100084D1300081515000821160008DF
:1000E0005F0100085F0100085F0100085F01000870
:1000F0005F0100085F0100085F0100085F01000860
:100100005F0100085F0100085F0100085F0100084F
:100110005F0100085F0100085F0100085F0100083F
:100120005F0100085F0100085F0100085F0100082F
:10013000DFF80CD000F078FB00480047592B00088E
:10014000081500200648804706480047FEE7FEE7FE
:10015000FEE7FEE7FEE7FEE7FEE7FEE7FEE7FEE777
:100160004D12000831010008F0B480EA0102D40FFA
:100170004200B2EB410F02D20246084611464A0045
:1001800042D0C30DDDB2C1F3C752AD1A202D35DA0E
:10019000C1F3160141F4000204B15242C5F1200638
:1001A00002FA06F12A411044B3EBD05F23D0C4B168
:1001B000012DA0EBC35009DCF0BC4FF0004202EA75
:1001C000C352DBB200F5000000F073BA400000F14A
:1001D000807000EBC350A0F1807040EAD1704900FC
:1001E00009E0490841EAC071A0EBC35000F50000E6
:1001F000400800EBC350F0BC00F052BA614201224B
:1002000002EB4101001BF6E7F0BC704781F00041B2
:10021000AAE780F00040A7E72DE9FE4F804681EA7B
:100220000300C00F0C46009021F0004123F0004570
:10023000B8EB0200A94105D24046214690461C4633
:100240000B46024623F00040104347D0270DC7F36A
:100250000A00C3F30A510290401A019040286BDA59
:10026000C3F3130040F4801B0098924620B1002392
:10027000D2EB030A63EB0B0B01985946C0F1400225
:10028000504600F0ECF906460D4650465946019A94
:1002900000F0F4F910EB08006141002487EA1152E4
:1002A00084EAE7731A4340D0009A62B3019A012AA4
:1002B0004FEA075215DC001B61EB02014FF00042D0
:1002C00002EA0752CDE90042001C41F58011324696
:1002D0002B4600F02BFA03B0BDE8F08F40462146D4
:1002E000F9E7001B61EB0201001C41F580130018C7
:1002F0005B412018A2F5001747EB030140EAD570D7
:10030000B6196D4111E06D084FEA360645EAC07531
:100310004FEA0752001B61EB0201001C41F58011FE
:1003200049084FEA30000019514132462B4603B0CC
:10033000BDE8F04F00F0EBB9009801224000002327
:10034000D0EB020263EBE073009821464FEAE074C1
:10035000B8EB000061EB0401E9E783F000435BE7E1
:1003600081F0004158E72DE9FE4F81EA030404F0D3
:10037000004421F0004100944FF0000B23F00043B3
:1003800050EA01045ED052EA03045BD0C3F30A547E
:10039000C1F30A552C44A4F2F3340194A0FB025497
:1003A000C1F3130141F48011C3F3130343F4801329
:1003B00001FB024400FB034E840A970A44EA81547D
:1003C00047EA8357A4FB076802958D0A05FB07855A
:1003D0004FEA932C04FB0C542705029D4FEA065864
:1003E00047EA1637B5EB08056EEB070C870E920E41
:1003F00047EA811742EA8312A7FB0201B6EB0B0121
:1004000064EB00042B0D43EA0C335E1844EB1C50E4
:10041000DA465146E7FB0201C5F313044FEA0B33FA
:1004200043EA14534FEA0432019C43EA0603A4F161
:100430000C040294009CCDE900B400F077F903B0FD
:10044000BDE8F08F00200146F9E72DE9F04D81EA83
:10045000030404F0004B21F0004514464FF0000A5D
:1004600023F0004150EA050220D054EA01021DD0D9
:10047000C5F30A570246C5F31303C1F31300C1F3D2
:100480000A5640F4801543F48013A7EB0608101BAE
:10049000D64608F2FD3873EB050002D308F10108D7
:1004A00001E092185B41B8F1000F03DA0020014629
:1004B000BDE8F08D00204FF48011064684460EE022
:1004C000171B73EB050705D3121B63EB05030643EC
:1004D0004CEA010C49084FEA300092185B4150EA9F
:1004E0000107EDD152EA030012D082EA040083EA48
:1004F0000501084305D0101BAB4106D201220023A1
:1005000006E000224FF0004302E06FF001025310BA
:100510001AEB06004CEB085110EB0A0041EB0B0103
:10052000BDE8F04D00F0F3B80EB5C10F80EAE07001
:100530000844CA07002140F233438DE80E000A4602
:100540000B4600F0F3F803B000BD00F0004230F0BD
:1005500000400AD0C10D01F56071C0F3160042EAF7
:100560000151C208400711437047002001467047FF
:1005700001F0004330B421F0004150EA010206D0FE
:100580000A0DA2F56072C1F31301002A02DC30BC2F
:1005900000207047440F44EAC104C100E01830BC99
:1005A00000EBC25000F07CB8002801DBC0F1004035
:1005B000002901DBC1F1004181427047002801DBC5
:1005C000C0F10040002901DBC1F1004188427047C1
:1005D00030B50B46014600202022012409E021FA13
:1005E00002F59D4205D303FA02F5491B04FA02F510
:1005F0002844151EA2F10102F1DC30BD2DE9F05FA7
:100600000546002092469B46884606468146402481
:100610001BE0284641464746224600F017F953465C
:100620005A46C01A914110D311461846224600F08E
:1006300016F82D1A67EB01084F46224601200021CB
:1006400000F00DF817EB00094E41201EA4F1010443
:10065000DFDC484631462A464346BDE8F09F202A63
:1006600004DB203A00FA02F1002070479140C2F109
:10067000200320FA03F3194390407047202A06DB39
:10068000CB17203A41FA02F043EAE07306E041FA60
:1006900002F3D040C2F1200291400843194670474E
:1006A0000029A8BF7047401C490008BF20F0010086
:1006B000704710B4B0FA80FC00FA0CF050EA010464
:1006C00004BF10BC704749B1CCF1200421FA04F4F6
:1006D00011FA0CF118BF012121430843A3EB0C01CF
:1006E000CB1D4FEA00614FEA102042BF002010BC32
:1006F000704700EBC35010440029A4BF10BC7047E2
:10070000401C490008BF20F0010010BC704710B524
:10071000141E73F1000408DA401C41F10001921824
:100720005B411A4301D120F0010010BD2DE9F04DCD
:1007300092469B4611B1B1FA81F202E0B0FA80F222
:1007400020329046FFF78BFF04460F4640EA0A002E
:1007500041EA0B0153465A46084313D0114653EA67
:10076000010019D0C8F14002504600F06FF805466C
:100770000E46504659464246FFF771FF084305D0E2
:10078000012004E020463946BDE8F08D00200543F5
:1007900046EAE0762C4337430A986305E40AA0EB67
:1007A00008000022FD0A44EA47540A3002D500201E
:1007B0000146E9E7010510196941DDE9084500191D
:1007C0006941BDE8F04DA2E7C1F30A52C1F313013C
:1007D00040F2FF3341F480119A4202DA00200146D0
:1007E000704740F233439A42A2F2334202DC524253
:1007F00000F02CB8FFF733BF30B5041E71F10004D0
:1008000004DB4FF00044404264EB0101141E73F11D
:10081000000405DB1C464FF00043524263EB040327
:10082000994208BF904230BD064C074D06E0E06893
:1008300040F0010394E8070098471034AC42F6D327
:10084000FFF77AFC6039000880390008202A04DBB1
:10085000203A21FA02F00021704721FA02F3D04039
:10086000C2F12002914008431946704710B54FF479
:100870008051024800F058F910BD0000000C014002
:1008800010B54FF48051024800F050F910BD00003F
:10089000000C014010B5012000F09EFA002000F08D
:1008A0009BFA10BD01460020044A10884FF67F4293
:1008B00010400843014A1080704700002C6C004033
:1008C00008B50146002000900348009000980844B5
:1008D00000900098008808BD006C00400149086045
:1008E0007047000000860D4208B500220092044ABD
:1008F0000092009A02440092009A116008BD000024
:10090000006C004008B50121082000F045FA4FF4C2
:100910008050ADF8000010208DF8030003208DF802
:1009200002006946014800F06BF808BD000C014068
:1009300000BFFEE77047000010B504462948844216
:1009400008D10121042000F037FA0021042000F032
:1009500033FA46E02448844208D10121082000F0FF
:100960002BFA0021082000F027FA3AE01F488442C1
:1009700008D10121102000F01FFA0021102000F002
:100980001BFA2EE01A48844208D10121202000F0F1
:1009900013FA0021202000F00FFA22E015488442CB
:1009A00008D10121402000F007FA0021402000F08A
:1009B00003FA16E01048844208D10121802000F09B
:1009C000FBF90021802000F0F7F90AE00B4884428F
:1009D00007D10121801500F0EFF90021A01500F0EA
:1009E000EBF910BD00080140000C0140001001406F
:1009F0000014014000180140001C0140002001408B
:100A00002DE9F041024600250026002000230024A5
:100A1000002791F803C00CF00F0591F803C00CF00B
:100A2000100CBCF1000F03D091F802C04CEA050590
:100A300091F800C0BCF1000F31D0146800202BE009
:100A40004FF0010C0CFA00F3B1F800C00CEA0306F9
:100A50009E4220D183004FF00F0C0CFA03F7BC43E9
:100A600005FA03FC4CEA040491F803C0BCF1280F1A
:100A700006D14FF0010C0CFA00FCC2F814C00AE0D9
:100A800091F803C0BCF1480F05D14FF0010C0CFAEE
:100A900000FCC2F810C0401C0828D1D31460B1F883
:100AA00000C0BCF1FF0F34DD546800202EE000F1DF
:100AB000080C4FF0010808FA0CF3B1F800C00CEA7A
:100AC00003069E4221D183004FF00F0C0CFA03F76E
:100AD000BC4305FA03FC4CEA040491F803C0BCF1E2
:100AE000280F05D100F1080C08FA0CF8C2F81480A0
:100AF00091F803C0BCF1480F07D100F1080C4FF08A
:100B0000010808FA0CF8C2F81080401C0828CED35F
:100B10005460BDE8F0810246002093680B400BB1A1
:100B2000012000E00020704741617047016170477B
:100B300008B54FF40050ADF8000004208DF8030014
:100B400003208DF8020069460148FFF759FF08BDF0
:100B5000000C014008B54FF48040ADF800001020B3
:100B60008DF8030003208DF8020069460148FFF765
:100B700047FF08BD000C014010B500F04BF8FFF72F
:100B8000D7FFFFF7E7FF10BD00BFFEE708B5012163
:100B9000082000F001F90B48FFF7CEFE4FF400707B
:100BA000ADF8000003208DF8020010208DF803003E
:100BB00069460448FFF724FF4FF400710148FFF72E
:100BC000B5FF08BD000C014010B54FF4007102489C
:100BD000FFF7ACFF10BD0000000C014010B54FF452
:100BE00000710248FFF7A0FF10BD0000000C01409B
:100BF00010B5044603E0207802F040FE641C207823
:100C00000028F8D10D2002F039FE0A2002F036FE4D
:100C100010BD000008B50121082000F0BDF84FF418
:100C20000050ADF8000010208DF8030003208DF86F
:100C3000020069460848FFF7E3FE4FF48040ADF834
:100C4000000010208DF8030003208DF80200694693
:100C50000148FFF7D5FE08BD000C014000BFFEE7CC
:100C6000704708B54FF4A06000F064F825208DF8B7
:100C7000000000208DF8010001208DF802008DF8A1
:100C80000300684600F01EF826208DF800000120C1
:100C90008DF8010002208DF8020001208DF803007C
:100CA000684600F00FF827208DF8000002208DF82C
:100CB00001008DF8020001208DF80300684600F065
:100CC00001F808BD70B5002100230F22C47804B3D9
:100CD000154C246804F4E064C4F5E064210AC1F111
:100CE0000403CA40447804FA03F184781440214391
:100CF00009010E4C0678A155047804F01F05012463
:100D0000AC4005786D11AD0005F1E025C5F8004156
:100D100009E0047804F01F050124AC40044D067876
:100D2000761145F8264070BD0CED00E000E400E0CF
:100D300080E100E002490143024A1160704700006F
:100D40000000FA050CED00E0014908627047000060
:100D500000000E427047000029B1064AD2690243E2
:100D6000044BDA6104E0034AD2698243014BDA6141
:100D7000704700000010024029B1064A1269024380
:100D8000044B1A6104E0034A12698243014B1A6161
:100D9000704700000010024029B1064A92690243E0
:100DA000044B9A6104E0034A92698243014B9A61C1
:100DB000704700000010024029B1064AD268024381
:100DC000044BDA6004E0034AD2688243014BDA60E4
:100DD00070470000001002400149086070470000A1
:100DE000400442420348406A40F080700149486232
:100DF000704700000010024030B50021002200249E
:100E000000232D4D6D6805F00C0121B1042905D09A
:100E1000082923D105E0294D056022E0274D056012
:100E20001FE0254D6D6805F47012234D6D6805F4C3
:100E30008034022505EB92421CB9214D55430560D3
:100E40000BE01D4D6D6805F400351DB11C4D55437B
:100E5000056002E0194D5543056002E0174D05603D
:100E600000BF00BF144D6D6805F0F0010909154D74
:100E70006B5C0568DD4045600F4D6D6805F4E06111
:100E8000090A104D6B5C4568DD4085600A4D6D6850
:100E900005F46051C90A0B4D6B5C4568DD40C560C7
:100EA000054D6D6805F44041890B074D6B5CC568C5
:100EB000B5FBF3F5056130BD0010024000127A0069
:100EC00000093D00000000201000002010B5014680
:100ED0000022002300204A11012A02D1094C236874
:100EE00006E0022A02D1074C236A01E0054C636A3E
:100EF00001F01F02012494401C400CB1012000E0CD
:100F0000002010BD0010024000210B4A11700A4A57
:100F1000203A82F82010012802D0042808D103E0EA
:100F20000121054A117004E00521034A117000E017
:100F300000BF00BF70470000201002400149086058
:100F4000704700003C0442420249096A0143014AD9
:100F50001162704700100240024909888143014A2A
:100F600011807047042800400348008840F01000BA
:100F700001490880704700000428004003480088A9
:100F80004FF6EF710840014908807047042800407F
:100F9000002103480188001F008841EA0040704793
:100FA0001C28004001460020064A12880A40D0B2A0
:100FB000044A121F12880A4012B108B1012000E051
:100FC000002070470428004010B50120FFF7EAFF19
:100FD00030B10120FFF7C0FF00F032F802F02CFA28
:100FE00010BD000029B1064A12880243044B1A8042
:100FF00004E0034A12888243014B1A8070470000C4
:101000000028004000B50246FFF7AEFF100C034970
:101010000880091D0A80FFF7B1FF00BD18280040B5
:1010200000B50246FFF7A0FFC2F303400349088062
:10103000091D0A80FFF7A2FF00BD0000082800403C
:1010400000BF0348008800F020000028F9D0704756
:1010500004280040074800884FF6F771084005490A
:10106000088000BF0348008800F008000028F9D07D
:10107000704700000428004070B5FFF77DFD4FF475
:1010800080411948FFF750FD002400BF4FF4005184
:101090001548FFF740FD0028F8D1002513E04FF474
:1010A00080411148FFF742FD64004FF480410E4833
:1010B000FFF73AFD4FF400510B48FFF72CFD00B14C
:1010C000641C681CC5B2182DE9DB4FF4804106484A
:1010D000FFF72CFD84F400044FF480410248FFF731
:1010E00023FD204670BD0000000C0140704710B584
:1010F00000F002F810BD00000CB500200190009037
:101100003348006840F480303149086000BF3048FF
:10111000006800F4003000900198401C0190009895
:1011200018B90198B0F5A06FF1D12948006800F412
:10113000003010B10120009001E0002000900098E4
:10114000012843D12348006840F01000214908607D
:101150000846006820F0030008600846006840F078
:10116000020008601A48406819494860084640680B
:1011700048600846406840F480604860084640681F
:1011800020F47C1048600846406840F4E81048604D
:101190000846006840F08070086000BF0C48006896
:1011A00000F000700028F9D00948406820F00300E2
:1011B000074948600846406840F00200486000BFA8
:1011C0000348406800F00C000828F9D10CBD00006D
:1011D0000010024000200240042808D14FF0E02116
:1011E000096941F004014FF0E022116107E04FF07E
:1011F000E021096921F004014FF0E02211617047FC
:1012000010B50F480068401C0D49086001F09AF9BC
:1012100038B101F08BF90A490968884201D801F018
:101220009BF908480068401E0649086038B906481E
:101230000068401C0449086064200249086010BD31
:1012400078000020800000207C00002010B51348AA
:10125000006840F0010011490860084640681049E4
:1012600008400E494860084600680E4908400B498E
:1012700008600846006820F480200860084640683E
:1012800020F4FE0048604FF41F008860FFF72FFF36
:101290004FF000600449086010BD000000100240DB
:1012A0000000FFF8FFFFF6FE08ED00E070470000C9
:1012B00000B585B001210520FFF76EFD01218803EF
:1012C000FFF76AFD1F4800F029FA4FF40070ADF8EF
:1012D000100018208DF8130003208DF8120004A9C7
:1012E0001948FFF78DFB4FF48060ADF810004820DF
:1012F0008DF8130004A91448FFF782FB4FF4E13086
:1013000000900020ADF80400ADF80600ADF808002C
:10131000ADF80C000C20ADF80A006946094800F051
:10132000A7FA012240F22551064800F07CFA01217B
:10133000044800F0E6F94021024800F0D9F905B070
:1013400000BD0000003801400008014070B50020D9
:101350004549088040F22551444800F03AFA0028F7
:101360007ED0424800F0F0FAC5B2294640A000F015
:10137000F7FA3D48008800F4004058BB3A4800881E
:1013800000F4804060B10A2D03D000203649088067
:1013900020E03548008840F400403349088019E0D7
:1013A0000D2D06D13048008840F480402E49088039
:1013B00010E02D480088C0F30D002E490D542A4836
:1013C0000088401C2849088008460088C72801DD9D
:1013D000002008800D2D24D127A000F0C1FA27A0FD
:1013E00000F0BEFA002407E02648005D26490855B3
:1013F000085D02F043FA641C244800688442F3DB71
:10140000204801F003FC002403E000201D4908559A
:10141000641C1E4800688442F7DB00201B490860FA
:1014200008E0184819490968455418480068401CE4
:10143000164908607F2D15D100201249134A126801
:10144000885412480068401E1049086000200D4969
:101450000E4A126888540D480068401E0B4900E08F
:1014600000E0086070BD000044000020003801402A
:1014700025630000D80100200D0A0000726F6F7410
:101480002300000074010020100100203000002023
:1014900000B585B001214804FFF75EFC012105205D
:1014A000FFF77AFC0420ADF8100018208DF8130027
:1014B00003208DF8120004A91448FFF7A1FA0820B0
:1014C000ADF8100048208DF8130004A90F48FFF76D
:1014D00097FA4FF4E13000900020ADF80400ADF829
:1014E0000600ADF80800ADF80C000C20ADF80A00BD
:1014F0006946074800F0BCF90121054800F001F9F0
:101500004021034800F0F4F805B000BD0008014098
:101510000044004010B540F22551144800F059F93C
:1015200010B3124800F010FA1149124A1278885488
:101530001048007820B908460078552800D010BD22
:101540000C480078401C0B490870084600780B28AE
:101550000AD10B220649084801F0FCFC002005498D
:10156000087001200549087000BFE8E7004400400A
:10157000F40200204C000020D00200204D0000208A
:1015800010B586B0044601218804FFF7E5FB012170
:101590000820FFF701FC4FF48060ADF8140018201C
:1015A0008DF8170003208DF8160005A91A48FFF7DB
:1015B00027FA4FF40060ADF8140004208DF81700EE
:1015C00005A91548FFF71CFA01940020ADF80800A2
:1015D000ADF80A00ADF80C00ADF810000C20ADF825
:1015E0000E0001A90D4800F043F9012240F22551F7
:1015F0000A4800F018F9012240F22441074800F09F
:1016000012F90121054800F07CF84021034800F060
:101610006FF806B010BD0000000C0140004800400B
:1016200070B5002540F225511F4800F0D2F8F0B106
:101630001D4800F089F9C4B21C48B0F80004C0F39A
:101640000E0040F2FF31884211DA1848B0F8000469
:10165000C0F30E0015490C540846B0F80004401CB5
:10166000B1F8001460F30E011048A0F8001440F225
:1016700024410D4800F0ADF8012813D10B48B0F813
:10168000000420F4004000F500400849A1F80004DF
:101690004A1C07A000F064F9034800F055F9C4B2F1
:1016A00001F090F970BD00000048004028070020BC
:1016B000BDD3CAD5B5C4D7D6B7FBB4AE25730D0A12
:1016C00025730D0A0000000008B54FF4A060FFF775
:1016D00031FB27208DF8000000208DF801008DF8E7
:1016E000020001208DF803006846FFF7EBFA08BD01
:1016F00001F40072B2F5007F00D100BFCA4302803E
:10170000704721B1828942F40052828104E08289CB
:101710004DF6FF731A4082817047000010B50446F1
:101720002048844209D101218803FFF745FB0021AD
:101730004FF48040FFF740FB32E01B48844209D160
:1017400001214804FFF718FB00214FF40030FFF798
:1017500013FB25E01548844209D101218804FFF7D5
:101760000BFB00214FF48020FFF706FB18E0104828
:10177000844209D10121C804FFF7FEFA00214FF489
:101780000020FFF7F9FA0BE00A48844208D1012152
:101790000805FFF7F1FA00214FF48010FFF7ECFA8B
:1017A00010BD0000003801400044004000480040E7
:1017B000004C00400050004002460020B1F5007F80
:1017C00000D100BF13880B400BB1012000E00020C6
:1017D000704770B50246002400230025002040F623
:1017E0006A16B14200D100BFC1F3421501F01F03D8
:1017F000012606FA03F3012D02D19689334006E053
:10180000022D02D1168A334001E0968A33400C1231
:10181000012606FA04F41688344013B10CB10120F5
:1018200000E0002070BDF0B503460024002600252E
:10183000002040F66A17B94200D100BF1846C1F334
:10184000421401F01F06012707FA06F5012C01D109
:101850000C3004E0022C01D1103000E014301AB139
:1018600007682F43076002E00768AF430760F0BDD9
:101870002DE9F04786B005460E460024A24600BF7B
:10188000A1460027B08900B100BF2F462C8A4CF634
:10189000FF700440F08804432C82AC894EF6F310AC
:1018A0000440B08831890843718908430443AC81FE
:1018B000AC8A4FF6FF400440B0890443AC8201A8D3
:1018C000FFF79AFA1F48874202D1DDF810A001E025
:1018D000DDF80CA0A88900F4004040B10AEBCA0072
:1018E00000EB0A1031684900B0FBF1F807E00AEBA1
:1018F000CA0000EB0A1031688900B0FBF1F86420DF
:10190000B8FBF0F004012009642101FB1089A889CB
:1019100000F4004040B1322000EBC900B0FBF1F010
:1019200000F00700044308E0322000EB09106421B6
:10193000B0FBF1F000F00F0004432C8106B0BDE8CD
:10194000F08700000038014001468888C0F3080095
:101950007047C1F308028280704700BFFEE70000B5
:101960000FB4054B10B503A9044A029800F0DEF845
:1019700010BC5DF814FB0000212600084000002088
:101980000FB4084B10B504A902AA039800F0CEF8D2
:10199000044602A9002000F060FC204610BC5DF85F
:1019A00014FB00005B22000802E008C8121F08C1F7
:1019B000002AFAD170477047002001E001C1121FD0
:1019C000002AFBD1704700002DE9FF5FDDE902200E
:1019D000010DDDF838B0024318D044F61050A1F2E2
:1019E000FF3141430D140F98012820D0A5EB0B00C7
:1019F000401C5FEA000A4FF00004474EDFF81C91DC
:101A0000A046504616D5CAF1000728E00F980124D9
:101A100043A2012808D0002100980F9BC0E90021B3
:101A2000C0E90243BDE8FF9F6FEA0B01F4E7CBF189
:101A30000000DEE7074612E0F80707D022463346EB
:101A400040464946FEF78FFC80468946224633468B
:101A500010461946FEF787FC04460E467F10002FFD
:101A6000EAD1DDE90201BAF1000F42464B4602DA43
:101A7000FEF779FC01E0FEF7E8FC04460E46002282
:101A8000284BFEF7B9FE03D84FF0FF30014607E0C0
:101A90000022254B20463146FEF7BEFBFEF794FEA2
:101AA000102409E0002C0ADB0A220023FEF7A6FD21
:101AB000019B30321A55641E50EA0102F2D1641CB7
:101AC000019AC4F1110314440F9A012A03D0012290
:101AD00008430DD10AE0084304D000204FF0110B59
:101AE0000F9080E7A3EB0B056D1E0DE05B4504DD59
:101AF0004FF0000205F1010504E003DA4FF00002A7
:101B0000A5F10105002AECD000980F99C0E9023137
:101B1000C0E9004586E70000000024400000F03FD7
:101B2000300000000000F0430000E03F2DE9FF4FCF
:101B300095B09B468946064600250FE2252877D1B9
:101B400000242746F84A0121059400E0044316F8D2
:101B5000013F203B01FA03F01042F7D130782A28E8
:101B600011D06FF02F033078A0F13002092A16D877
:101B7000059A44F0020402EB820203EB4202104495
:101B8000761C0590EFE759F8042B0592002A03DA3A
:101B9000504244F40054059044F00204761C30781E
:101BA0002E2816D116F8010F44F004042A280DD06F
:101BB0006FF02F023078A0F13003092B09D807EB22
:101BC000870302EB4303C718761CF3E759F8047B3D
:101BD000761C30786C280FD006DC4C2817D068288B
:101BE0000DD06A2814D104E0742810D07A280FD1BF
:101BF0000DE044F400140AE044F4801401E044F4DD
:101C000040147278824202D104F58014761C761C4E
:101C1000307866280BD013DC582877D009DC0028F0
:101C200075D04528F6D04628F4D047281AD19DE132
:101C300018E0632835D0642879D0652812D195E161
:101C4000702873D008DC6728F1D069286FD06E281F
:101C50000DD06F2806D1B5E073282CD0752875D02B
:101C6000782874D05A46179990476D1C75E1C4F3D3
:101C70000250022809D003280DD0D9F800100428FA
:101C80000DD00D6009F1040967E1D9F80010EA17D9
:101C9000C1E90052F6E7D9F800100D80F2E70D70A7
:101CA000F0E719F8041B8DF8001000208DF80100F2
:101CB000EA46012003E059F804AB4FF0FF3061071A
:101CC0004FF0000102D40DE008F101018846B9424D
:101CD0000FDA8045F8DB1AF808100029F4D108E083
:101CE00008F1010188468142FADB1AF80810002940
:101CF000F6D105985B46A0EB080721463846179AAF
:101D000000F094FA284400EB080507E04DE029E1D3
:101D10000DE01AF8010B5A4617999047B8F10108DF
:101D2000F7D25B4621463846179A13E142E00A2271
:101D30000092C4F302524FF0000A022A08D059F868
:101D400004CB032A4FEAEC710AD00DE029E02AE027
:101D500009F1070121F00702F2E802C1914609E00A
:101D60000FFA8CFC4FEAEC71042A03D14FFA8CFC79
:101D70004FEAEC71002907DA0A460021DCF1000C79
:101D800061EB02012D2202E0220504D52B228DF801
:101D90000420012203E0E20701D02022F7E7904669
:101DA00059E00A2102E010220DE010214FF0000A54
:101DB00000910BE010224FF0000A44F004040827C1
:101DC000009203E008224FF0000A0092C4F302528E
:101DD000022A05D059F804CB0021032A08D009E0D3
:101DE00009F1070121F00702F2E802C1914605E07E
:101DF0001FFA8CFC042A01D10CF0FF0C4FF00008F4
:101E0000220728D5702806D0009B83F0100353EAE0
:101E10000A0305D00EE040228DF80420012208E0DC
:101E20005CEA010206D030228DF804208DF805000E
:101E300002229046009B83F0080353EA0A030AD16A
:101E40005CEA010201D1620705D530228DF8042039
:101E50004FF001087F1E582804D034A003900EA82C
:101E600002900DE036A0F9E753466046009AFEF76F
:101E7000C5FB84460398825C0298401E0290027063
:101E80005CEA0100F0D1029806A9081A00F1200AC4
:101E9000600702D524F4803400E00127574502DDB5
:101EA000A7EB0A0000E0002000EB0A010090059873
:101EB0004144401A0590E00306D45B462146179A38
:101EC000059800F0B3F90544002706E001A85A463A
:101ED000C05D179990476D1C7F1C4745F6DBE003FA
:101EE0000CD55B462146179A059800F09FF90544EA
:101EF00004E030205A46179990476D1C0099481EFF
:101F000000900029F5DC08E0029802995A46007812
:101F1000491C0291179990476D1CBAF10001AAF172
:101F2000010AF1DC65E1000009280100303132339B
:101F30003435363738396162636465660000000005
:101F400030313233343536373839414243444546EF
:101F50000000000000F058F90544761C3078002895
:101F60007FF4ECAD19B02846BDE8F08F620700D4CD
:101F7000062709F1070222F0070CFCE80223E146DC
:101F800003F000485FEA080C02D00FF2702C0DE05D
:101F90005FEA045C02D50FF2682C07E05FEAC47CBC
:101FA00002D00FF2602C01E0AFF2700C4FF0FF385E
:101FB00023F00043CDF850C065280CD006DC45283E
:101FC00009D046281DD047283DD13DE0662818D0CD
:101FD00067287ED138E00021112F01DB112000E0BD
:101FE000781CCDE9000106A90EA8FFF7EDFCDDE99C
:101FF0000F010E9A03910021009207F1010A04914A
:102000004DE04FF000400097CDE9011006A90EA861
:10201000FFF7DAFCDDE90F0203920E9B1199002213
:10202000DDF80CA00093049211B9791C00EB010AB1
:10203000B7EB0A0004D4C0F1FF3007F1010A0490A5
:10204000AAEB0700019044E0012F00DA01270021EC
:10205000112F01DD112000E03846CDE9000106A96D
:102060000EA8FFF7B1FCDDE90F010E9A03910021E4
:1020700004910092BA4621070CD40399514500DA25
:102080008A46BAF1010F05DD009AAAF10101515CFF
:10209000302908D0B84202DA10F1040F06DA012123
:1020A000CDE9011015E0AAF10101E9E7002805DCFE
:1020B000049901440491AAEB000102E0411C51453E
:1020C00000DD8A460499401A401C01904FF0004000
:1020D0000290200704D40198504501DBCDF804801C
:1020E00000208DF84F0002980DF14F07B0F1004F1E
:1020F00025D02B200E9002984FF0020800280CDA11
:10210000404202902D200E9007E00A210298FEF72F
:102110005FFA3031029007F8011DB8F10001A8F113
:102120000108F2DC02980028EFD1791E0E980870A1
:10213000307800F0200040F0450007F8020D12A8AA
:10214000C01B00F107081498007800B1012000EBD3
:102150000A01019801EBE07105984144401A401EC4
:102160000590E00306D45B462146179A059800F0D7
:102170005DF805441498007818B15A4617999047AD
:102180006D1CE00324D55B462146179A059800F0A4
:102190004DF805441CE00498002807DBDDE9030145
:1021A000884203DD0098405C179901E017993020C0
:1021B0005A469047049805F10105401C0490019887
:1021C000401E019004D12E205A46179990476D1C4D
:1021D000BAF10001AAF1010ADDDC05E017F8010BF4
:1021E0005A46179990476D1CB8F10001A8F10108F3
:1021F000F4DC5B462146179A0598ABE62D000000FB
:102200002B000000200000002DE9F04104460025CD
:102210001E461746880404D405E039462020B047FE
:102220006D1C641EF9D52846BDE8F0812DE9F0410A
:10223000044600251E469046C80301D5302700E01D
:102240002027880404D505E041463846B0476D1C78
:10225000641EF9D52846BDE8F0810A68531C0B605E
:102260001070704770B5044600F076F9E06850B120
:102270000B48056805E0A54202D101F0D7FA70BD10
:10228000AD68002DF7D107480068E0600448006899
:10229000A0600348046001F0C9FA00BFEFE7000046
:1022A00084000020A000002070B50446002505E051
:1022B00054F82500002100F011FF6D1C54F8250092
:1022C0000028F5D170BD00002DE9F04104460E460E
:1022D0001746A07B00F00100C8B1A068B8B10D4856
:1022E00004600220A0733A46314604F10C00A36852
:1022F00098470546022D03D0032D01D0832E04D12B
:102300002146204600F03CF901E00120A073BDE821
:10231000F0810000A000002030B51648006864225B
:10232000B0FBF2F1B1F1807F01D301201DE021F07B
:102330007F40401E4FF0E022506150170F220028CE
:1023400007DA13071D0E0C4B00F00F04241F1D5558
:1023500003E013071C0E094B1C5400BF00204FF074
:10236000E022906107201061002008B100BFFEE765
:1023700030BD00001400002018ED00E000E400E093
:1023800001480068704700007800002010B5024640
:102390000023107808B1087808B9002010BD08E0C3
:1023A0001078CC5CA04201D00020F7E75B1C521CE7
:1023B00000BF10780028F3D10120EFE710B56FF0CF
:1023C0000400FEF709FF0A4800680A49B0FBF1F073
:1023D000094908700846007800EB4001C1EBC010C5
:1023E0004FF6FF7101EAC0000449088010BD0000EB
:1023F0001400002000127A00280000202A0000208B
:1024000010B53048007800285BDD2F48007800EBDD
:1024100040002E4911F820002D4908702A48007804
:1024200000EB4000294901EB800040682949086021
:102430002548007800EB4000244901EB80008068CB
:102440002549086020490978481CC11700EBD16173
:102450004911A0EB41111C4A11701A480078401E26
:10246000184908701C480068D8B91C4800681C4905
:10247000086011E01B48007808B100F035F81548F5
:1024800002681348017816480068FFF71DFF1448DA
:102490000068006812490860114800680028E9D106
:1024A0000FE00B480078812803D101200A49096810
:1024B0008873084802680648017807480068FFF7F3
:1024C00003FF10BDA5000020A60000202C0F002057
:1024D000A8000020AC000020B00000209C000020DC
:1024E000B4000020A700002010B5002009490870A2
:1024F000094804680BE0E07B40B10120A073002094
:10250000E073002282212046FFF7DEFE2468002CC3
:10251000F1D110BDA70000209C0000200146C86832
:1025200008B9012070470020FCE7000000B500F06A
:1025300009F810B10248006800BD0020FCE7000067
:10254000880000200348006808B10120704700207F
:10255000FCE700008400002010B5024800F052FDA6
:1025600010BD00008C00002070B504460D462946C1
:10257000204601F053F92046FFF774FE70BD0000BD
:102580002DE9F04104460E462348076823480568B4
:1025900000E02D68A54201D0002DFAD10DB9BDE8AB
:1025A000F081204600F026FDD0B10020A0731B482A
:1025B000056807E0AC4204D0224687212846FFF791
:1025C00083FE2D68002DF5D1A06848B1B44207D034
:1025D000114804600022832104F10C00A36898478D
:1025E0000E480068844205D10C48006800680B4919
:1025F00008600CE00948056806E02868A04202D19E
:102600002068286002E02D68002DF6D100BF024846
:10261000076000BFC3E70000A00000209C0000206E
:1026200000BF054A128802F04002002AF9D0C2B267
:10263000014B1B1D1A807047003801400146086895
:1026400000EB90000A79032A05DA0A7802F0030207
:102650000AB9012200E00022821A0879401E054BC7
:10266000185C10444A7910440722B0FBF2F302FBD5
:10267000130070479C38000810B5FEF7FDFC0446B7
:102680000448B4FBF0F4A4F14E0003490860084686
:10269000006810BDA08601002C000020024B0ECB6C
:1026A00080E80E0070470000A00200202DE9FE43E4
:1026B000B0480078002874D0AF4A07CA8DE80700F8
:1026C0000020AC490870AC480078552869D1AA4868
:1026D0004078512804D0522864D053287DD1C4E0DA
:1026E0009DF802109DF8032041EA022108B2FDF78F
:1026F0001BFF80460022A14BFDF7A7FE06460022E5
:102700009F4BFDF730FE0446FDF732FF9D49086000
:102710009DF804109DF8052041EA022108B2FDF75A
:1027200003FF80460022954BFDF78FFE06460022F0
:10273000934BFDF718FE0446FDF71AFF91494860D8
:102740009DF806109DF8072041EA022108B2FDF726
:10275000EBFE80460022894BFDF777FE06460022FD
:10276000874BFDF700FE0446FDF702FF85498860B0
:102770009DF808109DF8092041EA022108B2FDF7F2
:10278000D3FE80460022804BFDF75FFE0646002206
:102790007E4BFDF741FD0446FDF7EAFE7C490860EB
:1027A000C5E0E4E09DF802109DF8032041EA022113
:1027B00008B2FDF7B9FE80460022704BFDF745FEDA
:1027C00006460022734BFDF7CEFD0446FDF7D0FE12
:1027D000714908609DF8041000E0A7E09DF805200D
:1027E00041EA022108B2FDF79FFE80460022634BBA
:1027F000FDF72BFE06460022664BFDF7B4FD0446AE
:10280000FDF7B6FE644948609DF806109DF8072064
:1028100041EA022108B2FDF787FE06460022574B27
:10282000FDF713FE044600225A4BFDF79CFD80463F
:10283000FDF79EFE584988609DF808109DF8092014
:1028400041EA022108B2FDF76FFE804600224E4B9E
:10285000FDF7FBFD064600224C4BFDF7DDFC044670
:10286000FDF786FE4A49086061E09DF802109DF878
:10287000032041EA022108B2FDF756FE0646002277
:102880003E4BFDF7E2FD04460022444BFDF76BFD95
:102890008046FDF76DFE424908609DF804109DF8E2
:1028A000052041EA022108B2FDF73EFE80460022E3
:1028B000324BFDF7CAFD06460022384BFDF753FDAB
:1028C0000446FDF755FE364948609DF806109DF810
:1028D000072041EA022108B2FDF726FE0646002243
:1028E000264BFDF7B2FD044600222C4BFDF73BFDC5
:1028F0008046FDF73DFE2A4988609DF808109DF846
:10290000092041EA022108B2FDF70EFE0646002228
:102910001D4BFDF79AFD044600221C4BFDF77CFC85
:102920008046FDF725FE1A49086000E000BF00BFA1
:1029300014491C4800F00EFA01280CD11A4800680E
:10294000A8B91AA0FEF754F9012017490860002021
:10295000194908600BE01848006840B917A0FEF755
:1029600047F901201449086000200F490860002041
:10297000BDE8FE834D000020D00200200000E040B2
:1029800000003040AC020020004075400020424072
:102990004800002000409F40B802002000806640B0
:1029A000C4020020E80200206000002072756E6EF4
:1029B000696E67210D0A0000680000207175697456
:1029C000210D0A0010B50AA400F09AF804465CB183
:1029D000214608A0FEF7C4FF207800F031F8611C02
:1029E0000AA0FEF7BDFF02E010A0FEF7B9FF10BD80
:1029F000000000006C6F726120676574206D657364
:102A0000736167653A25730D0A00000049207769F4
:102A10006C6C2068616E646C652064617461206117
:102A2000626F75742025730D0A0000006E6F7420AC
:102A3000676574206D657373616765210D0A000019
:102A400010B50446A4F130000A2842D2DFE800F0B5
:102A50003D050B11191F252B31371FA0FEF7C8F8B4
:102A6000FEF7BCF836E01DA0FEF7C2F8FEF7ACF8A2
:102A700030E01BA0FEF7BCF8FDF7F8FEFDF700FF05
:102A800028E018A0FEF7B4F8FDF7F0FE22E016A04B
:102A9000FEF7AEF800F054FA1CE014A0FEF7A8F818
:102AA00000F03EFA16E012A0FEF7A2F800F0FEFDDC
:102AB00010E010A0FEF79CF800F0CAFD0AE00EA09E
:102AC000FEF796F800F0A6FD04E00CA0FEF790F8E3
:102AD00000E000BF00BF10BD310000003200000068
:102AE0003300000034000000350000003600000014
:102AF00037000000380000003900000030000000FE
:102B00001048B0F80004C00BC8B1002100200D4AE5
:102B1000B2F80024C2F30E020A4B98541846B0F8DB
:102B200000046FF30E001A46A2F800041046B0F835
:102B3000000420F40040A2F8000410467047002072
:102B4000FCE700002807002010B54FF41650FEF7F0
:102B500017FDFEF7B9FD10BD00F01AFA11A0FEF73F
:102B6000FFFE17A0FEF7FCFEFFF7D6FB00F02AFAE7
:102B700017A0FEF7F5FE1CA0FEF73AF8002120484A
:102B800000F0ACFA1F48FFF78FFB09E000BF00F030
:102B900093FA0028FBDC1C480068401C1A490860B6
:102BA000F4E70000636F6E74696B69207665727379
:102BB000696F6E20322E35206279207A710D0A00FD
:102BC0004C6F6164696E672E2E2E0D0A00000000A6
:102BD0004C6F6164696E67205375636365737366D8
:102BE000756C2E2E2E0D0A0073797374656D20732B
:102BF000746172742072656164792E2E2E0D0A0044
:102C00008C000020B4380008BC0000203EB504460B
:102C1000214643480068FFF7B9FB002851D0607A8D
:102C200030384FF47A714843A17A303901EBC10250
:102C300002EB011100EB8101E07A303800EB8000FB
:102C400001EB4000217B0844303836490860E17BC5
:102C5000A07B303800EB800001EB40003038314978
:102C60000871A17C607C303800EB800001EB4000F3
:102C700030382C494871207D30388871E17DA07D45
:102C8000303800EB800001EB400030382549C87136
:102C9000A17E607E303800EB800001EB40003038D0
:102CA00020490872617F207F303800EB800001EB03
:102CB000400030381B494872084600F04DFD00F0D6
:102CC000F5FC214618480068FFF760FBB0B1684684
:102CD000FFF7E4FC15489DE80E000EC00C38407A62
:102CE0001249097A114AD279CDE9002102900F48A0
:102CF0004379027901680EA0FEF732FE214613489F
:102D00000068FFF743FB08B1FDF768FF2146104854
:102D10000068FFF73BFB08B1FDF756FF3EBD000022
:102D2000CC00002034000020C0000020AC100020A7
:102D300025642E25642E2564202025643A25643AD6
:102D4000256420200D0A726F6F742300C4000020D8
:102D5000C80000202DE9F04186B004460E4600214F
:102D60002068FDF721FC12D100216068FDF71CFCF2
:102D70000DD10021A068FDF717FC08D1002504E063
:102D800056F8250044F825006D1C032DF8DB31684A
:102D90002068FDF73BFA07465B4801683846FDF7B7
:102DA0000DFC3CD35848006880F00047316820682B
:102DB000FDF72CFA80463946FDF7F6FB2FD37168F4
:102DC0006068FDF723FA07464F4801683846FDF76B
:102DD000F5FB24D34C48006880F0004771686068B8
:102DE000FDF714FA80463946FDF7DEFB17D3B168CC
:102DF000A068FDF70BFA0746434801683846FDF71F
:102E0000DDFB0CD34048006880F00047B168A06843
:102E1000FDF7FCF980463946FDF7C6FB60D23B481A
:102E20000068401C394908600846006801280BD139
:102E30006846FFF733FC9DE8070003AB07C39DF826
:102E400015003349086015E06846FFF727FC9DE848
:102E5000070003AB07C39DF815002E49086008461C
:102E600000682B490968401A04D52A4800683C309C
:102E7000284908602748006825490968401A2DD468
:102E800022480068002815DD0020204908602049FC
:102E9000086020490860002503E0002044F8250070
:102EA0006D1C032DF9DB00201B490860012006B0D2
:102EB000BDE8F081002015490860154908601549F2
:102EC0000860002503E0002044F825006D1C032D58
:102ED000F9DB0020104908600120E8E70120E6E75F
:102EE0000D480068401C0C4908600C48006800EB65
:102EF000C00101EB001008490968B1EBC00F01DD0A
:102F00000020D4E70120D2E7500000205400002028
:102F1000580000205C000020700000207400002099
:102F200010B5002240F225510148FEF77CFC10BD8F
:102F30000044004010B5FEF7ABFAFDF792FE10BD5D
:102F400010B5012240F225510148FEF76CFC10BD7E
:102F50000044004010B50346002002E00C5C1C5405
:102F6000401C9042FADB10BD08B54FF4A060FDF79D
:102F7000E1FE03208DF8000000208DF801008DF89F
:102F8000020001208DF803006846FDF79BFE08BD96
:102F900010B5FDF7FBFDFFF711FAFDF762FEFEF736
:102FA00087F900F0DDF9FFF7DFFF00F005FA00F028
:102FB00043FAFDF7A7FCFDF7DFFDFFF7C5FDFFF7BF
:102FC000B9FF10BD8A200649087000200549087025
:102FD0000549087005490860054908607047000008
:102FE000A4000020A6000020A50000209C000020D6
:102FF000A00000200146887B08B101207047002016
:10300000FCE7000048B1817B012902D0817B0229C5
:1030100003D10121C173014A11707047A70000203C
:1030200030B5034617480078202801D1012030BD73
:10303000154C2478134D2D782C44E0B2C41700EBC6
:10304000D4646411A0EB4414104D2C702846007811
:1030500000EB40000E4C04F820102846007800EBEE
:10306000400004EB800042602846007800EB4000FE
:1030700004EB8000836003480078401C014C207002
:103080000020D4E7A5000020A6000020B800002002
:103090002C0F00202DE9F04104460D461646054848
:1030A0000768324629462046FFF70EF901480760B7
:1030B000BDE8F081A000002010B50648007808B1F6
:1030C000FFF712FAFFF79CF90348007801490978E5
:1030D000084410BDA7000020A500002070B50446DC
:1030E0000E460D48056800E02D68A54201D0002D70
:1030F000FAD1A54200D170BD07480068206006489B
:1031000004600120A0730020A08132468121204666
:10311000FFF7C0FF00BFEEE79C0000202DE9F0475D
:1031200005460E4690464FF00109288810B15A28EE
:103130005DD109E000203149086057E000BF4FF041
:1031400000095A20288000BFB9F1000F02D10120E8
:10315000BDE8F08700BF872E21D1404604E0274913
:1031600009688968254A11602449096821B1234901
:103170000968C9688142F2D02049096871B11F49C4
:103180000C6808E0A168C968814203D1A168896818
:10319000A16000E0A468A1680029F3D126E0822E96
:1031A00000D023E000BF0027144804681BE020463D
:1031B00000F026FBA8B122468821E068FFF730FF27
:1031C00068B90020E06017B1A068B86002E00B4960
:1031D000A06808600020A06000F028FBE3E7FFF78C
:1031E000BBF92746A468002CE1D100BFA6E700BFC9
:1031F0004FF00009002028800320A9E78400002068
:103200002DE9F04104460E4617460125208810B1ED
:10321000392816D10BE013E000F0ACF914210C486A
:10322000FFF7A2F900BF00253920208000BF1DB1A3
:103230000748FFF773F910B90120BDE8F08100BF1E
:10324000EAE700BF0025002020800320F5E700000A
:10325000E41000202DE9F04104460E4617460125F2
:10326000208810B12B2816D109E013E000210D4869
:10327000FFF77AF900BF00252B20208000BF1DB189
:103280000848FFF74BF910B90120BDE8F08100BFF5
:10329000FFF70CFAEAE700BF00250020208003209A
:1032A000F3E70000D41000202DE9F04104460E465B
:1032B00017460125208810B1462817D10CE014E0EC
:1032C00000F0C6F940F6B8310B48FFF74DF900BFE2
:1032D00000254620208000BF1DB10748FFF71EF9DA
:1032E00010B90120BDE8F08100BFE9E700BF00256B
:1032F000002020800320F5E7F41000202DE9F041A4
:1033000004460E4617460125208810B11E2818D104
:103310000AE015E041F270710D48FFF725F900BF92
:1033200000251E20208000BF1DB10948FFF7F6F8D8
:1033300010B90120BDE8F08100BF06A0FDF758FCE0
:10334000E8E700BF0025002020800320F2E700000E
:10335000C410002068656C6C6F210D0A000000002D
:1033600010B501214FF0C050FDF7F6FC0120FDF72C
:10337000EBFCFDF78FFA0120FDF7C6FD00BF4120F1
:10338000FDF7A4FD0028FAD04FF48070FDF7DCFDB6
:103390000120FDF7D3FDFDF75DFEFDF751FE012194
:1033A0000846FDF71FFEFDF74BFE47F6FF70FDF7E1
:1033B00037FEFDF745FE10BD10B5FFF7D5FD012125
:1033C0004FF0C050FDF7C8FC0120FDF7BDFC042004
:1033D000FDF776FA4AF2A551884216D0FFF7C0FFF2
:1033E00040F2DE70134908600120087148710C201A
:1033F000C871002008724872084600F0ADF94AF220
:10340000A5510420FDF770FA0FE001214FF0C050E4
:10341000FDF7A2FC0120FDF797FC0020FDF75EFA06
:103420008020FDF73FFA00F007F8FDF713FEFDF7E7
:10343000D9FC10BDA002002070B500260820FDF7C1
:103440003FFA494908600C20FDF73AFA46490871ED
:103450001020FDF735FA444948711420FDF730FA81
:103460004149887100210120FDF7BCFDFDF790FD69
:10347000044639E001263D48241A3B488079401C27
:10348000C0B239498871082801DB012088713648AB
:103490000079022808D13448007800F0030008B110
:1034A0001C2506E01D2504E02F480079401E304908
:1034B0000D5C2D484079401CC0B22B494871A84290
:1034C00012DD0120487108460079401CC0B2087125
:1034D0000C2809DD0120087108460068401C0860BE
:1034E000642801D30020086020488442C2D24FF4EF
:1034F0006160B4FBF0F01C49C8714FF46160B4FB2B
:10350000F0F100FB11403C21B0FBF1F016490872CC
:103510004FF46160B4FBF0F100FB11403C21B0FBC3
:10352000F1F201FB120010494872BEB12046FDF7CE
:1035300069FD0D4881791420FDF7D6F90A484179D3
:103540001020FDF7D1F9084801790C20FDF7CCF9DE
:103550000548008881B20820FDF7C6F90121084618
:10356000FDF740FD70BD0000A00200207F5101006A
:10357000A838000810B5FDF77FFD04461148B4FBDC
:10358000F0F4114800684E30A0421AD00E4800688E
:10359000C0F14E00A04214D00CA0FDF729FB21463B
:1035A00010A0FEF7DDF90848016812A0FEF7D8F96F
:1035B000A4F14E00044908600846016810A0FEF717
:1035C000CFF910BDA08601002C0000207072657339
:1035D0007365642068617665206368616E67656401
:1035E000210D0A00B5B1C7B0616463D6B53A256450
:1035F0000D0A0000B5B1C7B06B673A25640D0A002B
:10360000CFC2B4CEB2CEBFBCB5C46B673A25640D91
:103610000A00000010B588B0FFF72EF804462246D5
:1036200004A16846FEF7ACF96846FDF7E1FA08B078
:1036300010BD00007072657373656420697320614A
:10364000626F757420252E3266206B670D0A0000AC
:103650002DE9F04391B00D4CDFF834904846FCF76B
:1036600074FF05460E462046FCF76FFF07463A46B4
:103670000B4608A102A8CDE90056FEF781F902A881
:10368000FDF7B6FA11B0BDE8F0830000F628EC4172
:10369000AE479C4274656D703A252E326609687596
:1036A0006D693A252E32660D0A00000000B5B7B0EC
:1036B00013A8FEF7F3FF13A807C825AB07C310A88C
:1036C000FEF7ECFF10A807C822AB07C30DA8FEF752
:1036D000E5FF0DA807C81FAB07C30AA8FEF7DEFF6A
:1036E0000AA807C81CAB07C307A8FEF7D7FF07A89F
:1036F00007C819AB07C304A8FEF7D0FF04A807C882
:1037000016AB07C39DF89D009DF890109DF883208F
:103710009DF87530CDE90032CDE902109DF8683092
:1037200004A128A8169AFEF72BF928A8FDF760FA3D
:1037300037B000BD63757272656E742074696D6513
:103740003A25642E25642E2564202025643A2564BC
:103750003A25640D0A00000070B5044600210120DE
:10376000FDF740FCFDF76CFC2449206808602079D7
:10377000087160794871E079C871207A0872607ABE
:1037800048722046FEF75AFF1C498871A07108460E
:1037900081791420FDF7A8F8184841791020FDF729
:1037A000A3F8164801790C20FDF79EF8134800880D
:1037B00081B20820FDF798F81048C0794FF4616194
:1037C00048430E49097AC1EB011100EB81000B4916
:1037D000497A4518FDF734FC2846FDF713FC012112
:1037E0000807FDF7B9FA0120FDF7AEFAFDF728FC4E
:1037F00001210846FDF7F6FB70BD0000A002002085
:1038000070B50446FEF7BCFD2168401A451C60688F
:10381000A84201D2012070BD0020FCE770B504462B
:103820000D466560FEF7ACFD206070BD70B51149B6
:10383000096819B90021104A116019E0FEF7A0FDCE
:103840000C490C68D4E9001211440D1AA4680AE06E
:10385000D4E900121144091AA94203D2D4E9001292
:1038600011440D1AA468002CF2D14119024A1160CA
:1038700070BD0000840000208800002010B50446C0
:1038800021460548FEF765F800BF80210248FDF794
:1038900093FF0028F9D010BD004800400602020541
:1038A00000030501040602041F1C1F1E1F1E1F1F0C
:1038B0001E1F1E1FD0000020E0000020F00000208E
:1038C00000010020000000004576656E74207469D8
:1038D0006D657200636C6F7365206C656400000039
:1038E0006F70656E206C6564000000006765742071
:1038F00074696D65000000007365742074696D65FE
:1039000000000000B4A5B6AFBCECB2E2CFDFB3CC90
:103910002CBAF3CCA8B3A4BFAA000000D1B9C1A6A9
:10392000BCECB2E2CFDFB3CCA3ACBAF3CCA8B3A467
:10393000BFAA0000CEC2CAAAB6C8B6A8CAB1B8FC0F
:10394000D0C2CFDFB3CC0000746370D0C4CCF8BC5D
:10395000ECB2E22CB6A8CAB1B7A2CBCD00000000F1
:10396000803900080000002010010000A81900089C
:10397000903A000810010020F8130000B819000860
:103980000000000001020304010203040607080905
:103990000204060800A24A04000000000000000023
:1039A00001020304060708090000000000000000EF
:1039B00000000000E1070000061106110A000000E7
:1039C00000000000000000000000000000000000F7
:1039D000CDCCCC3D00000000000000000000000045
:1039E00000000000000000000000000000000000D7
:1039F00000000000020000000000000000000000C5
:103A00006400000000000000000000000000000052
:103A1000C83800081D310008000000000000000048
:103A20000000000000000000000000000000000096
:103A30000000000000000000000000000000000086
:103A4000EC380008E0380008D4380008F8380008DE
:103A50000000000048390008FD32000800000000A6
:103A60000000000004390008553200080000000082
:103A7000000000001C3900080132000800000000AE
:103A80000000000034390008A932000800000000DE
:0400000508000131BD
:00000001FF
